S01000004C574D5F4D5353592E7372656379
S113000025C1000043C1000041C100003FC1000000
S11300103DC100003BC1000039C1000037C10000F0
S113002035C1000033C1000031C100002FC1000000
S11300302DC100000C94D70829C1000027C100007D
S113004025C1000023C1000021C100001FC1000020
S11300501DC100001BC1000019C1000017C1000030
S113006015C1000013C1000011C100000FC1000040
S11300700DC100000BC1000009C1000007C1000050
S113008005C1000003C1000001C10000FFC0000061
S11300900C947C090C946009F9C00000F7C00000BE
S11300A0F5C00000F3C00000EBC70000EFC0000083
S11300B0EDC00000EBC00000E9C00000E7C0000094
S11300C0E5C00000E3C00000E1C00000DFC00000A4
S11300D0DDC00000DBC00000D9C00000D7C00000B4
S11300E0D5C00000D3C00000D1C00000CFC00000C4
S11300F0CDC00000CBC00000C9C00000C7C00000D4
S1130100C5C00000C3C00000C1C00000BFC00000E3
S1130110BDC00000BBC00000B9C00000B7C00000F3
S1130120B5C00000B3C00000B1C00000AFC0000003
S1130130ADC00000F306BD07E3067A07E306F50742
S1130140E306E306FD0705080E086E616E00696E9E
S1130150660000407A10F35A00A0724E180900108D
S1130160A5D4E80000E87648170000E40B54020028
S113017000CA9A3B000000E1F50500008096980053
S1130180000040420F000000A0860100000010277C
S113019000000000E803000000006400000000000C
S11301A00A00000000000100000000002C76D8883E
S11301B0DC674F0823DFC1DFAE59E1B1B796E5E351
S11301C0E453C63AE651997696E8E6C28426EB896A
S11301D08C9B62ED407C6FFCEFBC9C9F40F2BAA507
S11301E06FA5F490055A2AF75C936B6CF9676DC19F
S11301F01BFCE0E40D47FEF520E6B500D0ED902EA3
S11302000300943577050080841E080000204E0A00
S1130210000000C80C333333330F986E128311413E
S1130220EF8D2114893BE65516CFFEE6DB18D18409
S11302304B381BF77C1D901DA4BBE4242032847230
S11302405E228100C9F124ECA1E53D2711241FBEE3
S1130250CFEFD1E8DEBFCDBF00E00CBF14E0A0E0DB
S1130260B2E0E6ECFCE300E00BBF02C007900D92A5
S1130270AE39B107D9F721E1AEE9B4E001C01D926E
S1130280A232B207E1F758D50C94611EB9CE089595
S1130290CF93DF93662399F1FC012081203189F506
S11302A0653089F5EC018BEE94E00E94D7138EED56
S11302B094E00E94D71389819A81A0E0B0E08093F2
S11302C0F1049093F204A093F304B093F4048BEE3E
S11302D094E00E942E148B819C81A0E0B0E0809376
S11302E0E4049093E504A093E604B093E7048EED50
S11302F094E00E942E140E944D0A81E005C080E023
S113030003C080E001C080E0DF91CF910895FC013B
S1130310618587819085BCCF0895EF92FF920F93FA
S11303201F93CF93DF938091AF049091B004892BF6
S113033019F5C1EBD4E00F2EFEEDEF2EF4E0FF2E05
S1130340F02D0EE914E08B81882391F0D093B00452
S1130350C093AF0488819981F80196838583CE0187
S11303600496938782878A818487C8010E948F0AB2
S11303702996CE15DF0539F7DF91CF911F910F91A3
S1130380FF90EF900895E091AF04F091B0048FEFE7
S11303909FEF9183808313821092B0041092AF0474
S11303A0BCCF08950E94550A8EED94E00C94D713A7
S11303B00895EBEEF4E0128682ED91E09487838752
S11303C0EEEDF4E081E0828787E491E0948783870F
S11303D01092B0041092AF04EEE9F4E01682158294
S11303E08FE08783808782E0818783EC91E0968722
S11303F08587E1EBF4E02EED34E08FEF9FEF9183FE
S1130400808313823996E217F307C9F767E871E02E
S11304108FE00C943B0A08952091BA043091BB04F8
S113042082179307F1F02091C3043091C40482171A
S1130430930789F02091CC043091CD04821793075F
S113044069F02091D5043091D60428173907E1F4D6
S113045084E090E008C082E090E005C083E090E092
S113046002C081E090E0FC01EE0FFF1FEE0FFF1FC2
S1130470EE0FFF1F8E0F9F1FFC01EF54FB4F81E017
S113048083834BDF81E0089580E008950F931F93E9
S1130490CF93DF9300D01F921F92CDB7DEB7909118
S11304A00A05923021F128F4992349F0913091F012
S11304B0DEC09330B9F1943009F457C0D8C080310C
S11304C009F0D5C0109209058093F80481E0809367
S11304D00A05CDC09091F804980F9093F8048230E7
S11304E011F080E001C082E080930A05C0C09091C1
S11304F0F804980F9093F804803121F483E08093FA
S11305000A05B5C0E091090591E09E0F9093090595
S1130510F0E0E750FB4F8083903109F0A8C01092BF
S11305200A05A5C09091F804980F9093F8048031BF
S113053099F4E091090581E08E0F80930905F0E0BC
S1130540E750FB4F90E19083803111F082E001C0CD
S113055080E080930A058BC0833021F484E080938B
S11305600A0585C010920A0582C09091F804891387
S11305707CC080910905893008F477C08091F90422
S1130580803109F072C08983E9EFF4E081859285B6
S11305909B838A83838594859D838C8301811281C7
S11305A0C8018031E0E79E0729F465E0CE01019699
S11305B06FDE5BC011230CF03FC02091BA04309170
S11305C0BB042F3F3F4FF1F02091C3043091C4048A
S11305D02F3F3F4F89F02091CC043091CD042F3F21
S11305E03F4F69F02091D5043091D6042F3F3F4FFF
S11305F0E1F544E050E008C042E050E005C043E0CB
S113060050E002C041E050E069E0649F9001659FC2
S1130610300D1124F901EF54FB4F9183808385E061
S113062082831382D901AB54BB4FFE0131960190F2
S11306300D928A95E1F719C02091B1043091B2046A
S11306402F3F3F4F91F4E1EBF4E09183808385E009
S1130650828381E0838385E0FE013196A5EBB4E0DB
S113066001900D928A95E1F758DE10920A050F90D9
S11306700F900F900F900F90DF91CF911F910F91DA
S11306800895E8ECF0E0908195FFFDCF8093CE00D3
S11306900895E8ECF0E080818823ECF78091CE00A7
S11306A00895CF93DF93EC018881882329F0219664
S11306B0E8DF89918111FCCF8DE0E3DF8AE0E1DF9F
S11306C080E0DFDFDF91CF910895DBDF80E090E011
S11306D00895089585E080938705089582E08093C6
S11306E08705089583E08093870508950F931F93EA
S11306F0FC010081118122813381FB014081518100
S113070062817381041715072607370748F081E0D3
S113071090E0401751076207730720F080E002C0A1
S11307208FEF9FEF1F910F91089580918705863079
S113073021F483E080938705089587E195E00C9484
S11307402E1408950F931F93CF93DF93EC0182E14E
S113075092E09F938F930E948A1D0F80D885C02DAD
S113076088810F900F90803209F04AC08A818F935C
S113077089818F9385E292E09F938F930E948A1DD3
S1130780E4E2F5E009811A8102831383148215825D
S1130790168217821086118689819A8193878287AF
S11307A089819A815AD689819A81A0E1B5E0209104
S11307B015053091160514963C932E93139720E358
S11307C02C9312969C938E931197E6E7F5E016828C
S11307D0158282E08783808783E08187B387A2873D
S11307E085E0848782E793E096878587CF0197D653
S11307F084E0809387050F900F900F900F900CC0AA
S11308001F928F9381E492E09F938F930E948A1D9D
S11308100F900F900F900F9081E0DF91CF911F9177
S11308200F910895CF92DF92EF92FF920F931F934F
S1130830CF93DF938C01DC011796ED91FC9118970F
S11308401A968C911A97818F1B968C911B97828F85
S11308501796CD91DC9118978A859B85892B09F48D
S1130860E9C083E692E09F938F930E948A1D898159
S11308701F928F930F2EFCE7EF2EF2E0FF2EF02D48
S1130880FF92EF920E948A1D8B858F938A858F93A6
S11308908DE892E09F938F930E948A1D888D8F9399
S11308A08F898F9381EA92E09F938F930E948A1D90
S11308B0898D1F928F9386EB92E09F938F930E9472
S11308C08A1D8A8D282F082E000C330B3F938F939B
S11308D081EC92E09F938F930E948A1D89811F92DD
S11308E08F93FF92EF920E948A1D8B8D1F928F939C
S11308F08DEC92E09F938F930E948A1D8C8D1F92A2
S11309008F9381EE92E09F938F930E948A1DEDB79F
S1130910FEB7B2960FB6F894FEBF0FBEEDBF88A126
S11309208F938F8D8F938E8D8F938D8D8F9385EF76
S113093092E09F938F930E948A1D8CA18F938BA129
S11309408F938AA18F9389A18F938CE093E09F93D7
S11309508F930E948A1D88A58F938FA18F938EA158
S11309608F938DA18F9380E293E09F938F930E9446
S11309708A1D8CA58F938BA58F938AA58F9389A5A8
S11309808F9385E393E09F938F930E948A1D88A998
S11309908F938FA58F938EA58F938DA58F938DE4C1
S11309A093E09F938F930E948A1D89A91F928F932E
S11309B083E693E09F938F930E948A1D8DB79EB721
S11309C082960FB6F8949EBF0FBE8DBF8AA91F9260
S11309D08F9387E793E09F938F930E948A1D8BE800
S11309E093E09F938F930E948A1D8AA90F900F9082
S11309F00F900F900F900F908823A1F06E0193E356
S1130A00C90ED11CE12CF12CD6018D916D0190E021
S1130A100E949D1DBFEFEB1AFB0A8AA990E0E8161D
S1130A20F90694F383EB92E09F938F930E948A1DBF
S1130A300F900F90F80180819181EEDC882319F0EA
S1130A4081E00E94EE0D81E0DF91CF911F910F9123
S1130A50FF90EF90DF90CF900895CF93DF93EC0158
S1130A608F8581110CC080915B05811112C089E6CC
S1130A7095E00E94D71381E080935B050AC08091C2
S1130A805B05882331F089E695E00E942E141092CC
S1130A905B058889813041F48CE595E00E942E1431
S1130AA087E08093870507C080918705823019F01D
S1130AB085E080938705DF91CF9108950F931F936D
S1130AC0CF93DF93009749F08C01C0E0D0E0D2D3FC
S1130AD0DDDC21960C171D07D1F7DF91CF911F9113
S1130AE00F9108959D98A59A839A8B980895959946
S1130AF0FECF28E180E090E0DC018B9A880F991FFB
S1130B00AA1FBB1F8B98959B03C00196A11DB11D05
S1130B10215099F78B9A8B98BC01CD018058089588
S1130B208F929F92AF92BF92CF92DF92EF92FF92F9
S1130B300F931F93CF93DF93CDB7DEB7082FADB6D6
S1130B40BEB6882309F454C0882E912C8DB79EB765
S1130B50E4E00E9F8019910911240FB6F8949EBF0A
S1130B600FBE8DBF01966C017C0110E0C0DFF70160
S1130B7061937193819391937F018FE99FE0019732
S1130B80F1F700C000001F5F0113F0CF26E733E048
S1130B9044E050E0B401C6010E94441A00FD1CC0A8
S1130BA00695F60194E0099FE00DF11D1124DF0183
S1130BB014974D915D916D917C9180819181A28179
S1130BC0B381840F951FA61FB71FBC01CD01969555
S1130BD08795779567950FC00695F60124E0029FE7
S1130BE0E00DF11D1124608171818281938103C024
S1130BF060E070E0CB010FB6F894BEBE0FBEADBE90
S1130C00DF91CF911F910F91FF90EF90DF90CF90E4
S1130C10BF90AF909F908F900895CF93DF93CDB7FF
S1130C20DEB76E970FB6F894DEBF0FBECDBF89E96D
S1130C3093E037DD85EB93E034DD2FEF83ED90E334
S1130C40215080409040E1F700C0000088EE68DF4A
S1130C504B015C0182EC93E024DD81ED93E021DD26
S1130C60E8ECF0E080818823ECF713DD2FEF83EDCF
S1130C7090E3215080409040E1F700C0000088EEEE
S1130C804FDF681979098A099B090E943F159B0166
S1130C90AC0160E070E088E493E40E94A4142B01AA
S1130CA03C0182EF93E0FDDC0F2EF9EFEF2EF3E031
S1130CB0FF2EF02D8E010F5F1F4F19DF6819790980
S1130CC08A099B090E943F15A30192010E94CB153A
S1130CD09F938F937F936F93FF92EF921F930F9342
S1130CE00E94A21DC801DDDC2FEF84E39CE02150AB
S1130CF080409040E1F700C000000FB6F894DEBFDA
S1130D000FBECDBFDACF86E094E0CBDC8CE094E07C
S1130D10C8DC88E394E0C5DC82E594E0C2CC0895A5
S1130D20CF93DF93CEE1D0E085EB92E0BADC21975C
S1130D30D9F7DF91CF9108950E94621360E076E9BC
S1130D4080E090E043D22FEF34E34CE02150304078
S1130D504040E1F700C00000ECE1F1E184E092E002
S1130D6093838283918380836D986E98759A769A23
S1130D707894B8DE81E694E094DCC5DF8ADC8133C4
S1130D8041F0823339F0803309F04DC1C9DFBBDF54
S1130D90F5CF43DF0F2EFBE0EF2EF5E0FF2EF02D15
S1130DA00F2EF0E1CF2EF0E7DF2EF02D06E715E051
S1130DB0C4E2D5E0412C55245394652C752C6894D9
S1130DC0222427F8312C0E946913EDD280918705E3
S1130DD090E08B309105B8F7FC018827E656FF4F69
S1130DE08F4F0C94F519BB24B394B882B98280E177
S1130DF08A8380E78B831C821D821E821F82188651
S1130E001986DB86CA864C865D866E867F8680E080
S1130E1090E8A0E0B0E0888B998BAA8BBB8B3E8ACC
S1130E202D8A8FE08C8B188E1F8A198E1A8EBB8E9A
S1130E308CE08C8F1D8E1E8E1F8E18A219A21AA2F2
S1130E401BA21CA21DA21EA21FA218A680E289AB8F
S1130E5084E08AABA6E5B1E4BCABABAB88E491E437
S1130E609EAB8DABC601F9D2C101FED28FE00E94C8
S1130E707C1281E00E94781262E174E081E0FBD28E
S1130E8062EA73E082E0F7D2E7E1F5E080E197E21D
S1130E90A0E0B0E086839783A087B187128685E9B6
S1130EA093E09487838710925B05E9E6F5E024EFED
S1130EB031E040E050E02683378340875187B28693
S1130EC089E693E094878387CF010E942E14ECE592
S1130ED0F5E088EE93E0A0E0B0E086839783A087F6
S1130EE0B18712868AE693E09487838762DAB092A8
S1130EF0870569CF60E080E090E0DBD4988F8F8B2A
S1130F00F6DD4B015C0188EE0BDEA5019401261B86
S1130F10370B480B590BCA01B9010E943D150E94B9
S1130F200C15CB01770FAA0BBB0B8DA79EA7AFA700
S1130F30B8ABD80116961C921E92159781E01796AD
S1130F408C93179718968C93189783E019968C9323
S1130F5019971B96DC93CE931A9787E31C968C9370
S1130F601C97EDE2F5E01E96FC93EE931D97C801E5
S1130F70D6D284E08093870526CF0E94491C9093A3
S1130F80160580931505D70114969C938E93139799
S1130F9080E18C931296DC92CE921197F80116821E
S1130FA015826894BB24B1F8B782B08683E0818748
S1130FB0F386E28685E084872EE633E0368725874C
S1130FC0C801ADD2B0928705809116058F938091A8
S1130FD015058F9348E754E05F934F930E948A1D51
S1130FE00F900F900F900F90EECE87E195E00E9446
S1130FF02E1486E080938705E6CE46D28111E3CE97
S11310005CD289E080938705DECE60E177E280E000
S113101090E047D08AE080938705D5CE51D283E013
S113102080938705D0CE8FE894E03BDBA7CE14BE37
S11310300FB6F894A8958091600088618093600051
S1131040109260000FBEE1E6F0E080E88083108239
S1131050789401C008951092F31080E197E2909380
S1131060A9008093A800E1EAF0E088E08083808111
S113107082608083E2E7F0E080818260808308956B
S11310801F920F920FB60F9211248F938091F31039
S11310908F5F8093F3108F910F900FBE0F901F906E
S11310A01895CF93DF93DC01CB01880F991FAA1FFA
S11310B0BB1F880F991FAA1FBB1F880F991FAA1F48
S11310C0BB1F880F991FAA1FBB1FBC01CD01660F50
S11310D0771F881F991F28EE33E040E050E00E94FC
S11310E0B719DA01C901211531054105510509F482
S11310F05BC07727652F542F432F282F1092700041
S1131100E6EBF0E08081806280831092B000109260
S1131110B1001092B20080818F71E9F787E087BB3C
S11311208093B100C3EBD0E06FEFA0E7B0E0E6EB53
S1131130F0E037E001C020E0109288054115510528
S113114011F068831BC0222311F0288317C0E6EB3B
S1131150F0E080818F71E9F7109270001092B10075
S113116083B5826083BDE6EBF0E080818F71E9F79F
S1131170E6EBF0E080818F7D808316C08C918260E5
S11311808C9380818F71E9F733BF889513BE9FB725
S1131190F894809188059FBF882371F24115510509
S11311A051F241505109C8CFDF91CF9108951F9258
S11311B00F920FB60F9211248F9381E080938805CC
S11311C08F910F900FBE0F901F901895DC01CB01EB
S11311D0880F991FAA1FBB1F880F991FAA1FBB1F27
S11311E09C01AD01220F331F441F551F220F331FD3
S11311F0441F551F60E074E284EF90E00E94B71929
S1131200BA01A9014150510961097109BB27A72FEE
S1131210962F852F8093CD004093CC00A8ECB0E0AE
S113122082E08C9388E98093C90086E08093CA00A9
S1131230E7E2F7E08EE596E091878087B583A483A3
S1131240178216821182108213821282E4E5F6E07C
S11312508BE895E091878087B583A48317821682F3
S1131260118210821382128281E080938A05109287
S1131270890508954FB7F894E4E5F6E020853185B3
S113128080819181BC016F5F7F4F71836083D9013D
S1131290A80FB91F8C9160817181248135816217F7
S11312A0730721F41092550610925406E4E5F6E013
S11312B02681378121503109378326834FBF089512
S11312C01F920F920FB60F9211240BB60F928F93A9
S11312D0EF93FF9381E080938A05E9ECF0E080814D
S11312E08F7D8083FF91EF918F910F900BBE0F90B4
S11312F00FBE0F901F9018951F920F920FB60F926A
S113130011240BB60F922F933F934F935F936F93D8
S11313107F938F939F93AF93BF93EF93FF938091AA
S1131320C8002091CE008C7159F5E4E5F6E04681C1
S11313305781848195814817590711F1408551855A
S113134082819381BC016F5F7F4F73836283DA0173
S1131350A80FB91F2C93228133818481958128178A
S1131360390721F41092570610925606E4E5F6E088
S11313708681978101969783868381E0809389058E
S1131380FF91EF91BF91AF919F918F917F916F9159
S11313905F914F913F912F910F900BBE0F900FBE15
S11313A00F901F90189580912D0790912E0700970C
S11313B069F120918A05222349F1E7E2F7E060858B
S11313C0718520813181A9014F5F5F4F5183408333
S11313D0DB01A20FB31F2C91648175814617570757
S11313E021F41092280710922707019790932E0753
S11313F080932D079FB7F8942093CE00E9ECF0E09A
S113140080818062808310928A059FBF2FB7F894F1
S1131410909189051092890540915A0650915B0676
S11314202FBF992311F0CA0149CB0895E4EFF0E1ED
S1131430148215821182108217A216A2EAEFF0E13B
S11314408AE191E111921192E817F907D9F763D66D
S11314507DD32CD15FD0AFC108959093F5108093C4
S1131460F4100C94921208959093F7108093F61050
S11314700C9480120895E82FF0E0EE0FFF1FE65061
S1131480FF4E71836083089581E020911A11309199
S11314901B11232B09F480E00895E4EFF0E186A109
S11314A097A1019697A386A30895E4EFF0E186A19E
S11314B097A1019797A386A308950C94A912089560
S11314C00C94B41208958DD325D74DC00895E0919E
S11314D03107F09132073097D9F022813381821796
S11314E0930789F405C0228133812817390759F4F9
S11314F0DC01AD57BF4F2C91278713962C91208B7D
S113150022E0248305C00190F081E02D309759F743
S11315100FC1089510923207109231070895FC010B
S11315201482178613821282A4EFB0E196968D91ED
S11315309C919797019697969C938E9396978091FA
S1131540310790913207009739F411821082F09399
S11315503207E0933107089591838083F093320733
S1131560E093310708950F931F93CF93DF93E09196
S11315703107F0913207309709F493C0EF018C8161
S1131580882321F0823009F466C085C09AD08C018A
S1131590009721F482E08C838F8783C09B838A83A6
S11315A081E08C83F801E957FF4F87E69AE0918345
S11315B080833197898582FB882780F98083998588
S11315C0D8011B968C911B9790FB80F91B968C93EA
S11315D01B97998593FB992790F990FB82F91B96A9
S11315E08C931B97E4EFF0E184818F5F84831C96D6
S11315F08C931C97808191811E969C938E931D974A
S11316008D819E8150969C938E931F978885982FE9
S11316109F7051968C915197807F892B51968C9312
S113162051979F819295907F8F70892B51968C93BF
S1131630F801EF57FF4F4C8550E06A857B85808128
S113164091810E943A1DF80191818C85890F8183D3
S1131650C80184D526C0EC17FD0741F4808191812F
S113166090933207809331070AC0FC0180819181F5
S11316708C179D07D1F78881998191838083E4EF4A
S1131680F0E186A197A1019797A386A3ED85FE8536
S1131690CE01199506C00990D881C02D209709F074
S11316A06ECFDF91CF911F910F910895E3E3F7E09F
S11316B08DE89CE01082E757FF4FE817F907D1F750
S11316C0089580913307882349F0ECEBF7E081E03B
S11316D090E0AC012081211122C002C040E050E022
S11316E069E8649F9001659F300D1124C9018D5CE8
S11316F0984FFC0111926A95E9F740E1FC0141839E
S1131700EF57FF4F2B5B384F31832083E4EFF0E139
S113171026A137A12F5F3F4F37A326A30895019633
S1131720E757FF4F8A309105A1F680E090E00895D5
S1131730FC011082E4EFF0E186A197A1019797A341
S113174086A30895009741F0FC01E757FF4F8CE012
S1131750ED38F80718F012C0E3E3F7E0808188233E
S113176021F00FC0808181110FC0E757FF4F8CE03B
S1131770ED38F807B8F380E090E0089580E090E059
S113178008958E2F9F2F08958E2F9F2F0895FC016B
S1131790DC01AD57BF4F1C92A4EFB0E114969C91AD
S11317A014979F5F14969C93149794878D919C91A2
S11317B0968785870895AEE8BCE080E090E04FEF1F
S11317C05FEF11965C934E93FC01EE0FFF1FEE0F3B
S11317D0FF1FEE0FFF1FE81BF90BE357F34F2081A8
S11317E02E7F208314961C921497019617968436A4
S11317F0910539F708950F931F93CF93DF93EEE884
S1131800FCE020E030E0062F10E0408151814817D1
S11318105907B1F4D901AA0FBB1FAA0FBB1FAA0F06
S1131820BB1FA21BB30BA357B34F4C9146954170FA
S1131830C42F40E0D42FC017D10711F4CD0108C044
S11318402F5F3F4F379624363105F9F680E090E05C
S1131850DF91CF911F910F910895A0E0B0E0EDE8E2
S1131860FCE0808180FD0DC08581882381F0109784
S113187039F015969C911597891718F4DF0101C06A
S1131880DF0137968FE0E934F80759F7FD018081CD
S11318908D708063808380E88583CF010895FC0187
S11318A0808180FD05C08FEF9FEF92838183158235
S11318B00895A1DF009721F0FC01838194810895AC
S11318C08FEF9FEF089597DF009709F0E8CF089511
S11318D00F931F93CF93DF93FC010185128511238E
S11318E02CF48585968508171907E1F5858196817D
S11318F00196C1F1EF0160E0858596857CDFFC01EE
S1131900892BA1F08F8198850196F9F42091F41028
S11319103091F5108F85988928173907B1F414830D
S1131920038380818F70806380830AC096DFFC010B
S11319308D859E859283818389859A85948383830B
S1131940CD57DF4F888186830DC08381948108172A
S11319501907B1F39681DE01AD57BF4F8C919817EB
S1131960F0F2EECFDF91CF911F910F910895CF93B5
S1131970DF93FC01878590898F3F2FEF9207D9F180
S1131980EF01638563FB662760F935DFDC01892B92
S113199091F18C9180FD2FC0FE01ED57FF4F8081A6
S11319A0811119C08C918F7080638C9315968C91E2
S11319B015978F5F15968C938F3FE9F4E2E9FCE06D
S11319C02EE43FE0808186958F5F80833796E2170F
S11319D0F307C1F710C09C91892F82958F70815FA6
S11319E08F70282F2295207F9F70922B9C938111BA
S11319F002C0CD0154DFDF91CF910895CF93DF93DF
S1131A00FC01878590898F3F2FEF920729F48FEF90
S1131A109FEF908787830EC0238522FF03C09087A2
S1131A20878308C0EF01638563FB662760F941DFA4
S1131A3098878F83DF91CF910895AF92BF92CF9211
S1131A40DF92EF92FF921F93CF93DF93EC011B85FC
S1131A5013FB112710F9CF84D888612FC60129DF21
S1131A60019659F0FE01E957FF4F11821082319718
S1131A7082E08083CE0172D322C0AD84BE8421DE95
S1131A807C010097D1F083DEF70181818A5F818335
S1131A90E957FF4F11821082F701B08AA786EF57EA
S1131AA0FF4F0190F081E02D81E08083B282A1821A
S1131AB0D482C3821583C70151D3CE0139DEDF91AD
S1131AC0CF911F91FF90EF90DF90CF90BF90AF9098
S1131AD00895FC012185263049F40780F085E02D26
S1131AE0658183819481EFDE81E0089580E008952B
S1131AF0DC0119962C911997222371F01796ED9118
S1131B00FC9118972081222319F0213019F006C086
S1131B10B9C30895DECF089580E0089580E0089564
S1131B20BC01EBE5FFE025E530E140E051E09081C8
S1131B30992319F091509083452F3596E217F307B6
S1131B40B1F7442311F0CB0189C60895EBE5FFE01A
S1131B5085E590E110823596E817F907D9F7E9E4AD
S1131B60FFE084E690E0A0E0B0E086839783A0875E
S1131B70B187128680E99DE09487838768E77DE0DA
S1131B8080E079CC0895CF93DF93DC01ED91FC9153
S1131B90119721812838F9F420812F7D2134D9F43B
S1131BA012962C912031B8F0EC018BDD009799F05E
S1131BB020E2FC0120832A8121832B81ED57FF4FF2
S1131BC020832C81319620834A8150E06881798179
S1131BD002960E943A1DDF91CF9108958093560F8B
S1131BE008952F923F924F925F926F927F928F92BD
S1131BF09F92AF92BF92CF92DF92EF92FF920F9398
S1131C001F93CF93DF93CDB7DEB72C970FB6F8941D
S1131C10DEBF0FBECDBF00E010E00F2EF4E2BF2EFA
S1131C20F02D0F2EF4EFEF2EF0E1FF2EF02D4424D3
S1131C3043946894AA24A4F86894772473F8689465
S1131C40662462F8312C212C0F2EF5E15F2EF02D45
S1131C50CC24C394D12CDAC1D8018C91823209F4FA
S1131C6005C118F4803241F0D1C1833209F4C9C1ED
S1131C70843209F4C9C1CAC1F801B0828385982F9E
S1131C809A7009F0C3C1258136812F3F3F4F91F4EB
S1131C90D8011F968D919C915097F7012081318135
S1131CA02817390719F0019609F0B0C1E2E2D8010A
S1131CB0EC93ACC1D8011F962D913C9150972F3FC6
S1131CC03F4F11F480FDA2C1F70120813181D80179
S1131CD01D968D919C911E972817390709F496C17A
S1131CE0C801F6DDE7E5FFE080E090E0832C922C6C
S1131CF09C014481442309F474C0D8011D966D915C
S1131D007C911E97408151816417750709F06AC060
S1131D101C968C911C97F901EE0FFF1FEE0FFF1F0D
S1131D20E20FF31FE95AF04F9281981B983008F0A4
S1131D303EC0F901EE0FFF1FEE0FFF1FE20FF31F6E
S1131D40E95AF04F8381482F50E0092E02C055957F
S1131D5047950A94E2F740FF17C0F70120813181CB
S1131D6017968D919C9118972817390709F04EC141
S1131D701B966C911B9763FB662760F91F968D91E8
S1131D809C915097A0DD42C1F901EE0FFF1FEE0FA9
S1131D90FF1F2E0F3F1FF901E95AF04F960102C0B1
S1131DA0220F331F9A95E2F7822B838336C1F90100
S1131DB0EE0FFF1FEE0FFF1F2E0F3F1FF901E95A11
S1131DC0F04F82838381282F30E09195A90102C0CE
S1131DD0440F551F9A95E2F7CA01816083835482A8
S1131DE01CC14F01019635968233910509F080CFCD
S1131DF08114910409F40AC1D8011D968D919C9116
S1131E001E97F401918380831C968C918283438274
S1131E10548289E49FE022D500C1D7012D913C91E1
S1131E20F801878590892817390781F0438542FD99
S1131E300BC0C801E2D1D7012D913C91F8018785EF
S1131E4090892817390711F0019621F4E2E2D801AC
S1131E50EC93DCC0D80117968D919C91189782174A
S1131E60930709F0D3C0E3E2EC93D0C01092560F6D
S1131E70D80151968C91519782958F70E82FF0E09C
S1131E80EE0FFF1FE650FF4E0190F081E02D3097DA
S1131E9009F460C01D962D913C911E973A832983C5
S1131EA01F964D915C9150975C834B8351969C9106
S1131EB051979F709D838E83AF57BF4F8D919C9197
S1131EC099878887B8016E5F7F4F861B970BD8016F
S1131ED011969C911197981B9A87AD57BF4F8C917F
S1131EE08B8711968C918C87D8011B969C91692FB6
S1131EF0637092FD02C080E001C080E2862B93FDF6
S1131F0002C090E001C090E4892B4F3F5F4F11F075
S1131F1090E001C0962D892BD80119964D915C91C2
S1131F201A972417350711F090E001C0972D892BDB
S1131F308F83D80115962D913C9116972F3F3F4FD3
S1131F4011F090E001C09A2D892B8F83CE01019668
S1131F50199501C080E0F801938590FF80E0D801D5
S1131F6017962D913C9118972F3F3F4F69F4F70135
S1131F7040815181D8011F962D913C915097421771
S1131F80530711F493FF842DF801258136812F3FE7
S1131F903F4FA1F1D7012D913C912F3F3F4F71F15C
S1131FA0882361F18EDB4C01009741F1F0DBF401F1
S1131FB081818D5F8183E957FF4F11821082D8019F
S1131FC01B968C911B9786958170F401938580FBF9
S1131FD091F993871D968D919C911E97908B87877D
S1131FE0EF57FF4F0190F081E02D10828091560F42
S1131FF082831C968C918183C401B0D0D801BC9299
S113200005C0C8011ADD02C0C80192DBC8019ADB11
S11320108C01892B09F020CE07C0F80187819085B7
S1132020019609F008CFF9CE2C960FB6F894DEBFCE
S11320300FBECDBFDF91CF911F910F91FF90EF9015
S1132040DF90CF90BF90AF909F908F907F906F90D4
S11320505F904F903F902F900895EF92FF920F93CF
S11320601F93CF937C0110E080E090E001E0C3E196
S113207013C0FC012081213179F4EC57FF4F2081FA
S113208031812150310931832083232B21F4FC0138
S1132090C083102F01C0102F55DB009751F7112377
S11320A011F0C701DBD3CF911F910F91FF90EF90F7
S11320B00895EF92FF920F931F93CF93DF937C01C8
S11320C010E080E090E001E0D7E1C0E116C0FC013F
S11320D02081263191F4EC57FF4F2081318121502A
S11320E0310931832083232B39F4FC01D083ED574C
S11320F0FF4FC083102F01C0102F24DB009739F746
S1132100112311F0C701AAD3DF91CF911F910F9131
S1132110FF90EF90089510926C1010926B10EEE502
S1132120F0E182E390E0A0E0B0E086839783A087AB
S1132130B187128689E590E194878387E1E5F0E130
S11321408AE090E0A0E0B0E086839783A087B1871F
S113215012868DE290E1948783870895CF93DF936D
S1132160EC01FC01EA57FF4F808181FF03C092E13B
S1132170988302C092E19883FE01ED57FF4F1082CD
S113218080FF05C02FEF3FEF3E832D8306C02091D3
S1132190F6103091F7103E832D83857019F4CE012B
S11321A02DDC04C08F85988998878F83E4EFF0E154
S11321B0808191819A87898785818F5F85838C83CC
S11321C08F819885019671F481E498E89B838A83D2
S11321D00E94491CCC57DF4F877099270196998339
S11321E0888308C081E698E89B838A83CC57DF4FB5
S11321F019821882DF91CF9108950F931F93CF9383
S1132200DF938C015EDAEC01892BB9F182E18883DA
S1132210F80181818983FE01ED57FF4F10820E94EE
S1132220491CFE01EC57FF4F877099270196918353
S11322308083339611821082F801418150E0B80105
S11322406E5F7F4FCE0102960E943A1D81E498E8AA
S11322509B838A838FEF9FEF98878F83F801858113
S113226096819E838D83E4EFF0E1808191819A874A
S1132270898785818F5F85838C83DF91CF911F91BF
S11322800F910895CF93DF93FC0121852330D9F476
S113229010C0FC012081263189F434852981321350
S11322A00DC027E120832A81EA57FF4F208381E074
S11322B00BC0FC01C781D08580E090E043DA009731
S11322C041F780E001C080E0DF91CF910895E09173
S11322D06B10F0916C10813021F048F0823019F0CD
S11322E004C080E205C081E203C081E001C080E057
S11322F0DF01AD57BF4F8C9385E1808310926C1042
S113230010926B10E4EFF0E186A197A1019797A3D7
S113231086A308959F92AF92BF92CF92DF92EF92DD
S1132320FF920F931F93CF93DF93C0E0D0E00F2E63
S1132330F4E1AF2EF02D04EF10E10F2EF7E1DF2EC4
S1132340F02D0F2EF6E19F2EF02D0F2EF5E1EF2E3E
S1132350F12CF02D0F2EF3E1CF2EF02D0F2EF1E105
S1132360BF2EF02D60C088818331C1F018F4823112
S113237039F059C0853149F1873109F445C053C05A
S1132380FE01EC57FF4F80819181892B29F0B8829F
S113239081E590E163D247C0C88245C080916B104B
S11323A090916C10892B09F03EC0D0936C10C093AF
S11323B06B10A8826981CE010296E0D0F80186A153
S11323C097A1019697A386A32EC0FE01ED57FF4F58
S11323D08081811117C02D853E85F801808191810E
S11323E02817390769F48B8580FF0AC09882FE019B
S11323F0EC57FF4FF182E0828EE590E12FD213C0BB
S1132400D88211C0D8820FC0CE01B1DAFE01E957DB
S1132410FF4F0190F081E02D309719F4CE0188D957
S113242002C0CE011995CE018DD9EC01892B09F09A
S11324309ACFDF91CF911F910F91FF90EF90DF9092
S1132440CF90BF90AF909F90089580916D10982F7A
S11324509F70E4E5F1E08081807F892B8083809107
S11324606D10882329F080916E1080935301089594
S113247080916E10982F9F71E8E4F1E08081807E56
S1132480892B8083089593E090934201E1E4F1E085
S113249090819F719830E1F780934201E1E4F1E08B
S11324A090819F718913FCCF089588E0ECDF8FEF52
S11324B080934F0180916F10882311F086E1E3CF60
S11324C00895E9E3F1E080818160808310926F10C8
S11324D010926D1081E08093F01088E0D4DF8BEED1
S11324E080935601ECE4F1E0808180688083089554
S11324F080936F10DACF089580936E10A6CF08955D
S1132500CF93DF931F921F92CDB7DEB79A8389834F
S1132510809362018A81809363010F900F90DF9111
S1132520CF910895CF93DF931F921F92CDB7DEB75B
S11325309A838983809360018A8180936101998160
S11325408A81890F80936D010F900F90DF91CF9155
S1132550089588E098DFE9E3F1E080818260808378
S113256082E08093F0100895E9E3F1E080818D7FAB
S113257080839BDF81E08093F01008951F93CF93B5
S1132580DF93182FD92FC62F89E17DDF8FEF80933A
S11325904F0182E08C0F80938001CC2371F0A12F36
S11325A0BD2FC1506C2F70E06E577E4FE1E8F1E013
S11325B08D918193E617F707D9F783E08093F010A4
S11325C082E080934201DF91CF911F9108951F9380
S11325D0CF93DF9300D01F921F92CDB7DEB78091C7
S11325E0F010823009F465C080914F0183FF3EC032
S11325F0A0917B016A2F70E0AB014F5F5F4F80E0D9
S113260090E020E0FC01E058FE4F3081FC01E059ED
S1132610FF4E30832F5F822F90E08417950794F349
S113262080E790E19A838983A250AB83FB01E05950
S1132630FF4E80818C83809147018A558D83CE0122
S11326400196A1DAE1E4F1E080818F718631E1F74E
S1132650EFE4F1E0808188608083ECE4F1E0808144
S11326608F77808380818068808323C080914F012D
S113267086FF1FC0809141018F718931A9F41091A7
S1132680420112951695177049F0133021F0153058
S113269021F013E003C011E001C012E006DF81E085
S11326A08093F010812F13DEEFE4F1E080818064E9
S11326B080830F900F900F900F900F90DF91CF9128
S11326C01F9108950E9417086DD0FBDE0C94160A22
S11326D008957DDF0E94630ACCC008950F931F9371
S11326E0CF93DF93EC018091F1109091F210009759
S11326F009F445C04E815F8168857985FC010281BA
S1132700138124813581401751076207730760F0F4
S1132710DC0117C0028113812481358140175107E0
S11327206207730768F403C0FC01A0E0B0E0041B77
S1132730150B260B370B02831383248335830AC0BE
S1132740DF01401B510B620B730BED91FC91119750
S1132750309701F74A835B836C837D83109741F044
S11327608D919C91119799838883CD93DC9315C0A7
S113277099838883D093F210C093F1100EC019820C
S113278018828E819F81A885B9858A839B83AC83B7
S1132790BD83D093F210C093F110DF91CF911F91BC
S11327A00F9108951092F2101092F1100895CF93A2
S11327B0DF93A091F110B091F210109791F1A81746
S11327C0B90751F50AC08E179F0729F5109731F004
S11327D0208131812D933C9307C0FC0120813181FC
S11327E03093F2102093F1100190F081E02D309796
S11327F0C1F04281538164817581EC018A819B819E
S1132800AC81BD81840F951FA61FB71F828393835C
S1132810A483B58306C0DF01ED91FC911197309735
S113282091F6DF91CF910895E091F110F091F210BB
S1132830309771F0E817F90721F40CC08E179F0741
S113284059F00190F081E02D3097C1F780E00895B0
S113285080E0089581E0089581E00895CF93DF93A7
S1132860EC01E2DF811102C0CE0138DFDF91CF91AC
S11328700895CF92DF92EF92FF92CF93DF938091EE
S1132880F310882309F459C08FB7F894C090F3105B
S11328901092F3108FBFD12CE12CF12CCC0CDD1C49
S11328A0EE1CFF1CD701C601880F991FAA1FBB1F6E
S11328B0880F991FAA1FBB1FC80ED91EEA1EFB1E34
S11328C0C091F110D091F2102097B9F18A819B81C7
S11328D0AC81BD81C816D906EA06FB0610F1C81AF8
S11328E0D90AEA0AFB0A888199819093F2108093AD
S11328F0F1108A85813011F4CE01F0DEEB85FC8580
S1132900CE011995C091F110D091F2102097A9F041
S11329108A819B81AC81BD81C816D906EA06FB0673
S1132920F0F68A819B81AC81BD818C199D09AE0929
S1132930BF098A839B83AC83BD83DF91CF91FF90D2
S1132940EF90DF90CF9008950CD0EBC0E3D040F02F
S1132950DAD030F021F45F3F19F0CCC0511115C129
S1132960CFC0F0D098F39923C9F35523B1F3951B45
S1132970550BBB27AA2762177307840738F09F5F9C
S11329805F4F220F331F441FAA1FA9F333D00E2E0B
S11329903AF0E0E830D091505040E695001CCAF778
S11329A029D0FE2F27D0660F771F881FBB1F26173D
S11329B037074807AB07B0E809F0BB0B802DBF0110
S11329C0FF2793585F4F2AF09E3F510568F092C04D
S11329D0DCC05F3FECF3983EDCF386957795679512
S11329E0B795F7959F5FC9F7880F911D96958795C1
S11329F097F90895E1E0660F771F881FBB1F6217E0
S1132A0073078407BA0720F0621B730B840BBA0B9D
S1132A10EE1F88F7E095089504D06894B111B5C00D
S1132A20089598D088F09F5790F0B92F9927B751FF
S1132A30A0F0D1F0660F771F881F991F1AF0BA957E
S1132A40C9F712C0B13081F09FD0B1E008959CC0A5
S1132A50672F782F8827B85F39F0B93FCCF3869574
S1132A6077956795B395D9F73EF4909580957095D1
S1132A7061957F4F8F4F9F4F0895E89409C097FB4E
S1132A803EF490958095709561957F4F8F4F9F4F41
S1132A909923A9F0F92F96E9BB279395F695879585
S1132AA077956795B795F111F8CFFAF4BB0F11F448
S1132AB060FF1BC06F5F7F4F8F4F9F4F16C08823EF
S1132AC011F096E911C0772321F09EE8872F762F25
S1132AD005C0662371F096E8862F70E060E02AF066
S1132AE09A95660F771F881FDAF7880F9695879552
S1132AF097F9089597F99F6780E870E060E008957A
S1132B009FEF80EC089500240A9416161706180601
S1132B100906089500240A941216130614060506DD
S1132B200895092E0394000C11F4882352F0BB0F6E
S1132B3040F4BF2B11F460FF04C06F5F7F4F8F4FD1
S1132B409F4F089557FD9058440F551F59F05F3F0C
S1132B5071F04795880F97FB991F61F09F3F79F0BB
S1132B6087950895121613061406551FF2CF46953D
S1132B70F1DF08C0161617061806991FF1CF8695BF
S1132B807105610508940895E894BB2766277727A3
S1132B90CB0197F908950BD0C4CFB5DF28F0BADF85
S1132BA018F0952309F0A6CFABCF1124EECFCADFDE
S1132BB0A0F3959FD1F3950F50E0551F629FF0014C
S1132BC0729FBB27F00DB11D639FAA27F00DB11DA5
S1132BD0AA1F649F6627B00DA11D661F829F22272E
S1132BE0B00DA11D621F739FB00DA11D621F839FB5
S1132BF0A00D611D221F749F3327A00D611D231F8B
S1132C00849F600D211D822F762F6A2F11249F57D8
S1132C1050408AF0E1F088234AF0EE0FFF1FBB1FFB
S1132C20661F771F881F91505040A9F79E3F51059A
S1132C3070F060CFAACF5F3FECF3983EDCF386954B
S1132C4077956795B795F795E7959F5FC1F7FE2B45
S1132C50880F911D9695879597F908952F923F9225
S1132C604F925F926F927F928F929F92AF92BF9298
S1132C70CF92DF92EF92FF920F931F93CF93DF9344
S1132C80CDB7DEB760970FB6F894DEBF0FBECDBFE9
S1132C907C011B016A01FC0117821682838181FF7A
S1132CA02AC39E012F5F3F4F3901F7019381F10140
S1132CB093FD859193FF81911F01882309F417C324
S1132CC0853239F493FD859193FF81911F018532FB
S1132CD031F4B70190E0E2D656016501E6CF10E089
S1132CE0512C912CFFE1F915D8F08B3279F038F49E
S1132CF0803279F08332A1F4F92DF0612EC08D3247
S1132D0061F0803369F4292D21602DC0392D3260A2
S1132D10932E892D8460982E2AC0E92DE86015C071
S1132D2097FC2DC020ED280F2A3088F496FE06C0AB
S1132D303AE0139F200D1124122F19C08AE0589EE7
S1132D40200D1124522EE92DE0629E2E10C08E32E9
S1132D5031F496FCCCC2F92DF0649F2E08C08C3659
S1132D6021F4292D2068922E02C0883641F4F10105
S1132D7093FD859193FF81911F018111B3CF9BEB4B
S1132D80980F933020F4992D9061805E07C09BE9E1
S1132D90980F933008F059C1992D9F7E96FF16E045
S1132DA09F73992E853619F49064992E08C086363F
S1132DB021F4392F3068932E02C01111115097FE5F
S1132DC007C01C3350F444244394410E27E00BC045
S1132DD0183038F027E017E005C027E09CE3492EBF
S1132DE002C0212F412C560184E0A80EB11CF6012B
S1132DF06081718182819381042DA30158D56C0176
S1132E00F981FC87F0FF02C0F3FF06C091FC06C005
S1132E1092FE06C000E205C00DE203C00BE201C051
S1132E2000E08C858C7019F0011143C280C297FEBA
S1132E3010C04C0CFC85F4FF04C08A81813309F472
S1132E404A94141474F528E0241578F588E0482E83
S1132E502CC096FC2AC0812F90E08C159D059CF017
S1132E603CEFC3163FEFD30674F0892D8068982E8B
S1132E700AC0E2E0F0E0EC0FFD1FE10FF11D8081DC
S1132E80803319F411501111F4CF97FE0EC044246D
S1132E904394410E812F90E0C816D9062CF41C19D6
S1132EA004C04424439401C010E097FE06C01C14DF
S1132EB01D0434F4C601019605C085E090E002C00B
S1132EC081E090E001110196112331F0212F30E0CF
S1132ED02F5F3F4F820F931F252D30E082179307FA
S1132EE014F4581A01C0512C892D897041F45520CD
S1132EF031F0B70180E290E0D1D55A94F8CF0023A5
S1132F0021F0B701802F90E0C9D593FC08C055206B
S1132F1031F0B70180E390E0C1D55A94F8CF97FE21
S1132F204AC04601D7FE02C0812C912CC6018819E3
S1132F309909F301E80FF91FFE87ED87960124191B
S1132F403109388B2F87012F10E011950195110954
S1132F503FEF8316930621F4B7018EE290E09ED5ED
S1132F60C814D9044CF08F8598898815990524F4E0
S1132F70ED85FE85818101C080E3F1E08F1A91081F
S1132F802D853E852F5F3F4F3E872D878016910606
S1132F9024F0B70190E082D5DBCFC814D90441F402
S1132FA09A81963320F4953319F43C8534FF81E3F8
S1132FB0B70190E048C08A81813319F09C859F7ED7
S1132FC09C87B70190E06AD5111105C094FC16C026
S1132FD085E690E015C0B7018EE290E05FD51E5FF4
S1132FE082E001E0080FF301E80FF11D8081B701D1
S1132FF090E054D5802F0113F4CFE8CF85E490E01E
S1133000B7014CD5D7FC06C0C114D10441F4EC85FA
S1133010E4FF05C0D194C194D1088DE201C08BE2D4
S1133020B70190E03BD580E32AE0C216D1042CF02E
S11330308F5FFAE0CF1AD108F7CFB70190E02ED511
S1133040B701C601C0962AD549C1833631F083370A
S113305079F0833509F052C01FC0560132E0A30E47
S1133060B11CF6018081898301E010E0630111C085
S11330705601F2E0AF0EB11CF601C080D18096FE7D
S113308003C0612F70E002C06FEF7FEFC601FBD475
S11330908C01F92DFF7713C0560122E0A20EB11C5A
S11330A0F601C080D18096FE03C0612F70E002C09B
S11330B06FEF7FEFC601D3D48C01F92DF0689F2EFA
S11330C0F3FD18C0852D90E00817190798F4B7018F
S11330D080E290E0E3D45A94F5CFF60197FC859111
S11330E097FE81916F01B70190E0D8D451105A94A2
S11330F0015011090115110581F7F0C0843611F052
S1133100893659F5560197FE09C024E0A20EB11C78
S1133110F60160817181828193810AC0F2E0AF0E71
S1133120B11CF60160817181072E000C880B990B8C
S1133130F92DFF769F2E97FF09C090958095709585
S113314061957F4F8F4F9F4FF0689F2E2AE030E0AC
S1133150A30126D5C82EC6183EC0092D853721F4F3
S11331600F7E2AE030E01DC0097F8F3691F018F4FD
S1133170883559F0BCC0803719F0883711F0B7C0D2
S1133180006104FF09C0046007C094FE08C0066023
S113319006C028E030E005C020E130E002C020E1B4
S11331A032E0560107FF09C084E0A80EB11CF60105
S11331B0608171818281938108C0F2E0AF0EB11CFD
S11331C0F6016081718180E090E0A301E9D4C82E0A
S11331D0C6180F77902E96FE0BC0092D0E7FC116D0
S11331E050F494FE0AC092FC08C0092D0E7E05C05E
S11331F0DC2C092D03C0DC2C01C0D12E04FF0DC032
S1133200FE01EC0DF11D8081803311F4097E09C0AB
S113321002FF06C0D394D39404C0802F867809F0AB
S1133220D39403FD10C000FF06C01C2DD51478F400
S1133230150D1D190CC0D51450F4B70180E290E0AF
S11332402DD4D394F8CFD51410F45D1801C0512CAB
S113325004FF0FC0B70180E390E020D402FF16C042
S113326001FD03C088E790E002C088E590E0B70163
S11332700CC0802F867851F001FF02C08BE201C0A0
S113328080E207FD8DE2B70190E008D4C11630F466
S1133290B70180E390E002D41150F8CFCA94F3014F
S11332A0EC0DF11D8081B70190E0F8D3C110F6CF89
S11332B015C0F4E0F51550F584E0581A93FE1EC0CD
S11332C0011125C02C8523FF27C00AE411E0392D04
S11332D03071932EF8018491811121C0552009F495
S11332E0FCCCB70180E290E0D9D35A94F7CFF70130
S11332F08681978123C08FEF9FEF20C0B70180E2C2
S113330090E0CCD35A945110F9CFDACF512CB701B5
S1133310802F90E0C3D3D6CF0EE411E0D8CF911024
S11333208052B70190E0BAD30F5F1F4FD3CF23E091
S1133330251510F483E0C1CF512CC4CF60960FB68D
S1133340F894DEBF0FBECDBFDF91CF911F910F91D7
S1133350FF90EF90DF90CF90BF90AF909F908F90B1
S11333607F906F905F904F903F902F900895A1E2CF
S11333701A2EAA1BBB1BFD010DC0AA1FBB1FEE1FEB
S1133380FF1FA217B307E407F50720F0A21BB30B36
S1133390E40BF50B661F771F881F991F1A9469F7B2
S11333A060957095809590959B01AC01BD01CF010E
S11333B00895052E97FB16F400940FD057FD05D001
S11333C0D6DF07FC02D046F408C0509540953095EE
S11333D021953F4F4F4F5F4F08959095809570957D
S11333E061957F4F8F4F9F4F0895EE0FFF1F881FEA
S11333F08BBF0790F691E02D1994DC01FB018C91B1
S113340090819D9381934150510914161506BCF384
S11334100895CF92DF92EF92FF920F931F93CF9371
S1133420DF937C016B01D42FC52F8901F901199514
S11334306D2F7C2F97FF10C0C601F801199597FFD7
S113344002C0C60118C06D2F7C2FC701F801199561
S113345097FD0FC0C7010FC0C601F80119951816D2
S113346019067CF36D2F7C2FC701F801199597FD80
S1133470F1CF8D2F9C2FDF91CF911F910F91FF9052
S1133480EF90DF90CF9008952F923F924F925F92EA
S11334906F927F928F929F92AF92BF92CF92DF9260
S11334A0EF92FF920F931F93CF93DF93CDB7DEB7C5
S11334B02A970FB6F894DEBF0FBECDBF8C017B01F7
S11334C05A874987690129853A85200F311F3A8334
S11334D0298337E0E316F10468F569807A80498529
S11334E05A85E49E5001E59EB00CF49EB00C112464
S11334F0A00EB11E6A147B0408F06BC173010E1593
S11335001F0528F089859A85680E791EF3CF470137
S1133510E985FA858E1A9F0AB701C401F601199547
S1133520181619067CF749855A85B401C70165DF69
S11335307401E5CFC7019695879529853A85829FC1
S11335405001839FB00C929FB00C1124A00EB11EA9
S1133550A701415051095C834B8357E0E516F10400
S113356009F448C08B819C81829F3001839F700C39
S1133570929F700C1124600E711E99E2E916F104F9
S113358090F1C70143E0969587954A95E1F7829FAC
S11335904001839F900C929F900C11241401220CE3
S11335A0331CA801420D531DB801680D791D960105
S11335B0C8012FDF2C01A501480D591D9194819458
S11335C091089601B501C501880D991D22DF5C01A2
S11335D0B301680D791D9601A301C30182199309F2
S11335E018DF3C0101C028019601A301B501C20105
S11335F010DF5C0149855A85B501C801FEDE69808A
S11336007A802B813C8149855A85249FF001259F2E
S1133610F00D349FF00D1124FE83ED835F01A00EA5
S1133620B11E460D571D5C834B83250113011A827D
S113363019828B809C8089859A85881A990AA81496
S1133640B90408F44DC0B801C401F601199518165F
S11336501906B4F1892B69F449855A85B401C1016D
S1133660CCDE89859A85280E391EE1E0F0E0FA83E4
S1133670E9832B813C8149855A85240F351F3C837E
S11336802B83D7CFB801C501F6011995950149855A
S11336905A85241B350B38872F8397FD15C0892B3A
S11336A069F449855A85B201C501A7DE29853A85A1
S11336B0421A530A41E050E05A834983AF80B884E8
S11336C0A814B904F8F60CC049855A85B501C4019B
S11336D094DEAF80B88441E050E05A834983C9CF77
S11336E089819A81892B09F44AC06D807E8029855D
S11336F03A85620E731E600E711E7401E218F3089F
S1133700A101401B510BE416F5060CF4A701141695
S113371015062CF4B401641B750BC8016EDEA201FE
S11337204A195B095A01A3014419550989859A85E7
S1133730481B590BA416B50608F4A5011416150662
S11337402CF4B301641B750BC40157DEE985FA85BB
S1133750EE15FF0538F4C701BF0180D29601AF0111
S1133760C80192DE29853A852A153B0590F5830127
S11337700A191B09C501B90171D27B01A4CEE985DF
S1133780FA85EE9E5001EF9EB00CFE9EB00C112403
S1133790A00EB11E6A147B04E0F473010E151F051C
S11337A028F089859A85680E791EF4CF4701E9854A
S11337B0FA858E1A9F0AB701C401F60119951816E5
S11337C019067CF749855A85B401C70116DE7401D0
S11337D0E5CF2A960FB6F894DEBF0FBECDBFDF91BA
S11337E0CF911F910F91FF90EF90DF90CF90BF90FA
S11337F0AF909F908F907F906F905F904F903F908D
S11338002F9008958F929F92AF92BF92CF92DF92A2
S1133810EF92FF92CF93DF93EC01688179818A81E3
S11338209B81611571058105910521F464E279EDAF
S11338308BE597E02DE133EF41E050E0BADD49013B
S11338405A019B01AC01A7EAB1E41CD26B017C01D3
S1133850ACEEB4EFA501940121D2DC01CB018C0DB7
S11338609D1DAE1DBF1DB7FF03C00197A109B04840
S113387088839983AA83BB839F77DF91CF91FF903D
S1133880EF90DF90CF90BF90AF909F908F9008956E
S1133890B9CF80E092E0B6CFA0E0B0E08093000220
S11338A090930102A0930202B0930302089528307A
S11338B008F027E03327DA01990F311D87FD916065
S11338C000966105710539F432602E5F3D9330E353
S11338D02A95E1F708959F3F30F08038710561051E
S11338E009F03C5F3C5F3D93913008F08068911D86
S11338F0DF93CF931F930F93FF92EF92192F987F2B
S11339009695E92F96959695E90FFF27E455FE4F76
S113391099273327EE24FF24A701E7010590089493
S1133920079428F4360FE71EF81E491F511D660F31
S1133930771F881F991F0694A1F70590079428F410
S1133940E70EF81E491F561FC11D770F881F991FC8
S1133950661F0694A1F70590079428F4F80E491FF2
S1133960561FC71FD11D880F991F661F771F069406
S1133970A1F70590079420F4490F561FC71FD81FBD
S1133980990F661F771F881F0694A9F784911095D5
S1133990177041F0D695C79557954795F794E794D6
S11339A01A95C1F7E2E5F1E0689415901591359107
S11339B06591959105907FE27395E118F10A430BA7
S11339C0560BC90BD009C0F7E10CF11E431F561F5B
S11339D0C91FD01D7EF4703311F48A95E6CFE894A4
S11339E0015030F0080F0AF40027021708F4202FC2
S11339F02395022F7A3328F079E37D932A95E9F70A
S1133A0010C07D932A9589F6069497956795379506
S1133A1017951794E118F10A430B560BC90BD009FB
S1133A2098F023957E9173957A3308F070E37C9334
S1133A302013B8F77E9170617D9330F0839571E324
S1133A407D9370E32A95E1F71124EF90FF900F9195
S1133A501F91CF91DF91992787FD90950895FC01DF
S1133A600590615070400110D8F7809590958E0FA5
S1133A709F1F0895FB01DC0102C001900D9241508B
S1133A805040D8F70895FC01615070400190011036
S1133A90D8F7809590958E0F9F1F08950F931F93CD
S1133AA0CF93DF93FB01238121FD03C08FEF9FEFB1
S1133AB02CC022FF16C046815781248135814217CC
S1133AC0530744F4A081B1819D012F5F3F4F31839F
S1133AD020838C93268137812F5F3F4F3783268342
S1133AE014C08B01EC01FB010084F185E02D1995D4
S1133AF0892BE1F6D80116968D919C911797019622
S1133B0017969C938E931697CE01DF91CF911F91B8
S1133B100F910895CF93DF93CDB7DEB7AE014A5F1F
S1133B205F4FFA0161917191AF0180911E119091E3
S1133B301F1194D8DF91CF91089560911E11709157
S1133B401F11ACCF0F931F93CF93DF93CDB7DEB785
S1133B502E970FB6F894DEBF0FBECDBF0E891F8916
S1133B6086E08C831A8309838FEF9FE79E838D837E
S1133B70AE01465E5F4F688D798DCE0101966ED899
S1133B80EF81F885E00FF11F10822E960FB6F8949E
S1133B90DEBF0FBECDBFDF91CF911F910F9108956E
S1133BA0FA01AA27283051F1203181F1E8946F936A
S1133BB06E7F6E5F7F4F8F4F9F4FAF4FB1E03ED010
S1133BC0B4E03CD0670F781F891F9A1FA11D680FAE
S1133BD0791F8A1F911DA11D6A0F711D811D911DE1
S1133BE0A11D20D009F468943F912AE0269F112456
S1133BF03019305D3193DEF6CF010895462F4770BA
S1133C00405D4193B3E00FD0C9F7F6CF462F4F7014
S1133C10405D4A3318F0495D31FD4052419302D072
S1133C20A9F7EACFB4E0A695979587957795679518
S1133C30BA95C9F700976105710508959B01AC0118
S1133C400A2E06945795479537952795BA95C9F73F
S1133C50620F731F841F951FA01D0895AA1BBB1B11
S1133C6051E107C0AA1FBB1FA617B70710F0A61B78
S1133C70B70B881F991F5A95A9F780959095BC0199
S1133C80CD0108950FD0A59F900DB49F900DA49FD2
S1133C90800D911D11240895B7FFF4CFF3DF821B2B
S1133CA0930B0895A29FB001B39FC001A39F700D11
S1133CB0811D1124911DB29F700D811D1124911D30
S1093CC00895F894FFCF03
S1133CC6010000000000000300000000650300007E
S1133CD6000041646472657373206D657373616774
S1133CE665200A0D004164647265737320726573FE
S1133CF6706F6E736520726376642C202578200DB0
S1133D0600556E6B6E6F776E2041646472657373D3
S1133D16204D6573736167653A20202578202F6EE0
S1133D262F72002D2D2D2D2D2D2D2D2D2D2D2D2D9F
S1133D362D2D2D2D2D2D2D2D2D0A0D004E6F646547
S1133D4620547970653A202564200A0D0053686F63
S1133D56727420616464723A2030782558200A0D02
S1133D6600506172656E7420616464723A20307822
S1133D762558200A0D004C51493A202564200A0D85
S1133D8600525353493A202564200A0D0053656EA8
S1133D96736F727320547970653A202564200A0D76
S1133DA60053656E736F72732053697A653A2025E2
S1133DB664200A0D0053656E736F7273204261743A
S1133DC6746572793A202564200A0D0053656E7372
S1133DD66F72732054656D703A202564200A0D00B5
S1133DE653656E736F7273204C696768743A202545
S1133DF664200A0D0053656E736F7273204D6F69EC
S1133E0673747572653A202564200A0D0053656E35
S1133E16736F7273205765696768743A2025642046
S1133E260A0D0043617074696F6E20547970653AA7
S1133E36202564200A0D0043617074696F6E205357
S1133E46697A653A202564200A0D00436170746915
S1133E566F6E20546578743A003E3E3E207072655B
S1133E666269656861206B616C696272616963612C
S1133E76203C3C3C006E65646F74796B616A207308
S1133E8661006E756C61206E6173746176656E6136
S1133E9600706F6C6F7A2032303067207A617661F9
S1133EA67A696520612073746C616320454E5445BC
S1133EB65200484F544F564F00566168613A2025C8
S1133EC62E32662067004D454E553A0031202E2E7F
S1133ED62E2E2E2E206B616C6962726163696120DD
S1133EE6706F6D6F636F75207A6E616D65686F2094
S1133EF67A6176617A69610032202E2E2E2E2E2E5C
S1133F0620706F736C692076616875206E61204736
S1133F16570030202E2E2E2E2E2E20636C656172B5
S1133F2600496E696369616C697A616369612070CD
S1133F3672656265686C6100414444525F726571E2
S1133F462C206E6F646549443D2578200A0D007364
S1113F566B757320746F207A6E6F76610000B5
S9030000FC
