S01700004763634170706C69636174696F6E312E737265635B
S113000099C00000AEC00000ACC00000AAC000004F
S1130010A8C00000A6C00000A4C00000A2C0000048
S1130020A0C000009EC000009CC000009AC0000058
S113003098C0000098C1000094C0000092C0000065
S113004090C000007EC100008CC000008AC0000087
S113005088C0000086C0000084C0000082C0000088
S113006080C000007EC000007CC000007AC0000098
S113007078C0000076C0000074C0000072C00000A8
S113008070C000006EC000006CC000006AC00000B8
S1130090BBC1000066C0000064C0000062C0000074
S11300A060C000005EC000005CC000005AC00000D8
S11300B058C0000056C0000054C0000052C00000E8
S11300C050C000004EC000004CC000004AC00000F8
S11300D048C0000046C0000044C0000042C0000008
S11300E040C000003EC000003CC000003AC0000018
S11300F038C0000036C0000034C0000032C0000028
S113010030C000002EC000002CC000002AC0000037
S113011028C0000026C0000024C0000022C0000047
S113012020C000001EC000001CC000001AC0000057
S113013018C0000011241FBECFEFD1E8DEBFCDBF31
S113014000E00CBF12E0A0E0B2E0ECE2F5E000E079
S11301500BBF02C007900D92A23CB107D9F702D0A1
S1130160E3C14ECF84B1806784B98DB188608DB905
S113017085B1806285B985B1806485B98EB18860A6
S11301808EB92FEF84E39CE0215080409040E1F74A
S113019000C0000085B18F7D85B985B18F7B85B99D
S11301A08EB1877F8EB92FEF84E39CE0215080408D
S11301B09040E1F700C0000085B1806285B985B147
S11301C0806485B98EB188608EB92FEF84E39CE09A
S11301D0215080409040E1F700C0000080E096E9A3
S11301E0D4D081E092E0EAD089E092E0E7D08AE1DD
S11301F092E0E4D08CE292E0E1D08BE392E0DED0B6
S11302008AE492E0DBD080E692E0D8D0C0E0F5D07A
S1130210813369F028F48B32D1F08D3219F12DC07D
S11302208433A9F3853359F0823339F504C084E764
S113023092E0C4D0ECCF81E992E0C0D0E8CFC11104
S113024003C033D0C1E0E3CF27D0C0E0E0CF80913A
S113025000028B3018F08A508093000280910002D3
S113026046D0D5CF80910002843618F4865F8093FF
S11302700002809100023BD0CACF90E0DC010D90D7
S11302800020E9F7119724E1EEEAF2E001900D92E3
S11302902A95E1F793D0BBCFF89410928000109286
S11302A0810010926F0078940895CF93DF93F894AF
S11302B0A0E8B0E01C92E1E8F0E01082CFE6D0E0E4
S11302C0188280EA97E09093890080938800808167
S11302D08860808380818560808388818260888350
S11302E08C9180648C937894DF91CF910895CF930F
S11302F0DF93F894E0EBF0E0108221EB30E0D901D9
S11303001C92C0E7D0E01882BFEF8B9FC00111247C
S113031064E670E0A4D06093B3008081826080833F
S1130320808181608083D9018C9185608C938881E0
S1130330816088838081806880837894DF91CF9105
S113034008951F920F920FB60F9211248F939F93CB
S113035095B180E2892785B99F918F910F900FBE47
S11303600F901F9018951F920F920FB60F921124A1
S11303708F939F939EB188E089278EB99F918F9127
S11303800F900FBE0F901F9018959C0140E050E015
S113039060E271EA87E090E075D021503109309332
S11303A0CD002093CC0088ED8093C90008959091EE
S11303B0C80095FFFCCF8093CE0008950F931F9340
S11303C0CF93DF938C01C0E0D0E008C0F801EC0FBC
S11303D0FD1F8081882361F0EADF2196F8010190F6
S11303E00020E9F73197E01BF10BCE17DF0770F31C
S11303F0DF91CF911F910F9108958091C8008823B8
S1130400E4F78091CE0008951F920F920FB60F92D9
S113041011240BB60F922F933F934F935F936F93D7
S11304207F938F939F93AF93BF93EF93FF93E5DFF6
S1130430813011F481E3BBDFFF91EF91BF91AF9164
S11304409F918F917F916F915F914F913F912F91E8
S11304500F900BBE0F900FBE0F901F90189597FB37
S1130460072E16F4009406D077FD08D027D007FC99
S113047005D03EF4909581959F4F089570956195B0
S11304807F4F0895052E97FB16F400940FD057FD67
S113049005D028D007FC02D046F408C050954095FA
S11304A0309521953F4F4F4F5F4F0895909580951C
S11304B0709561957F4F8F4F9F4F0895AA1BBB1B6B
S11304C051E107C0AA1FBB1FA617B70710F0A61B50
S11304D0B70B881F991F5A95A9F780959095BC0171
S11304E0CD010895A1E21A2EAA1BBB1BFD010DC06C
S11304F0AA1FBB1FEE1FFF1FA217B307E407F507D0
S113050020F0A21BB30BE40BF50B661F771F881FAB
S1130510991F1A9469F760957095809590959B0141
S10F0520AC01BD01CF010895F894FFCF99
S113052C0A4D454E553A0D0A00313A204D616C6125
S113053C416265636564610D0A00323A2056656C4C
S113054C6B61416265636564610D0A00343A205441
S113055C696D657230204F4E0D0A00353A2054698E
S113056C6D657231204F4E0D0A002B3A204C4544D8
S113057C332070726964616A206A6173200D0A0009
S113058C2D3A204C4544332075626572206A6173A0
S113059C200D0A006162636465666768696A6B6C46
S11305AC6D6E6F707172737475767778797A0D0AD3
S11305BC004142434445464748494A4B4C4D4E4FF3
S11305CC505152535455565758595A0D0A002075C8
S11305DC6E6B6E6F776E2073657175656E63650DEA
S10505EC0A00FF
S9030000FC
