S00C00004C4142322E7372656317
S11300001AC1000038C1000036C1000034C100002C
S113001032C1000030C100002EC100002CC100001C
S11300202AC1000028C1000026C1000024C100002C
S113003022C1000020C100001EC100001CC100003C
S11300401AC1000018C1000016C1000014C100004C
S113005012C1000010C100000EC100000CC100005C
S11300600AC1000008C1000006C1000004C100006C
S113007002C1000000C10000FEC00000FCC000007E
S1130080FAC00000F8C00000F6C00000F4C0000090
S1130090F2C00000F0C00000EEC00000ECC00000A0
S11300A0EAC00000E8C00000E6C00000E4C00000B0
S11300B0E2C00000E0C00000DEC00000DCC00000C0
S11300C0DAC00000D8C00000D6C00000D4C00000D0
S11300D0D2C00000D0C00000CEC00000CCC00000E0
S11300E0CAC00000C8C00000C6C00000C4C00000F0
S11300F0C2C00000C0C00000BEC00000BCC0000000
S1130100BAC00000B8C00000B6C00000B4C000000F
S1130110B2C00000B0C00000AEC00000ACC000001F
S1130120AAC00000A8C00000A6C00000A4C000002F
S1130130A2C000006E616E00696E660000407A1015
S1130140F35A00A0724E18090010A5D4E80000E884
S11301507648170000E40B54020000CA9A3B0000E2
S113016000E1F505000080969800000040420F0071
S11301700000A08601000000102700000000E80332
S1130180000000006400000000000A0000000000FD
S11301900100000000002C76D888DC674F0823DFBC
S11301A0C1DFAE59E1B1B796E5E3E453C63AE6518F
S11301B0997696E8E6C28426EB898C9B62ED407CB6
S11301C06FFCEFBC9C9F40F2BAA56FA5F490055A52
S11301D02AF75C936B6CF9676DC11BFCE0E40D4777
S11301E0FEF520E6B500D0ED902E0300943577059A
S11301F00080841E080000204E0A000000C80C3352
S11302003333330F986E12831141EF8D2114893BE0
S1130210E65516CFFEE6DB18D1844B381BF77C1D60
S1130220901DA4BBE424203284725E228100C9F1B3
S113023024ECA1E53D2711241FBECFEFD1E8DEBF9A
S1130240CDBF00E00CBF13E0A0E0B2E0EEE2F2E2CA
S113025000E00BBF02C007900D92A632B107D9F798
S113026023E0A6E2B3E001C01D92A632B207E1F793
S113027029D50C941511C4CECF93DF9300D01F92CF
S1130280CDB7DEB79C838B838B819C819C0140E03E
S113029050E080E291EAA7E0B0E0BC01CD010E9409
S11302A02A0DDA01C90101979A8389838DEC90E0C4
S11302B029813A81232F3327FC0120838CEC90E0A1
S11302C02981FC01208389EC90E028E1FC01208352
S11302D000000F900F900F900F90DF91CF91089531
S11302E0CF93DF931F92CDB7DEB78983000088ECEC
S11302F090E0FC018081882F90E080729927892BFF
S1130300B1F38EEC90E02981FC01208300000F9072
S1130310DF91CF910895CF93DF93CDB7DEB700007F
S113032088EC90E0FC0180818823D4F78EEC90E087
S1130330FC018081DF91CF910895CF93DF931F92C9
S11303401F92CDB7DEB79A8389830AC089819A81C7
S1130350FC018081C5DF89819A8101969A83898312
S113036089819A81FC018081882381F78DE0B8DF3F
S11303708AE0B6DF80E0B4DF00000F900F90DF91D9
S1130380CF910895CF93DF93CDB7DEB788EC90E09B
S1130390FC0180818078DF91CF910895CF93DF9322
S11303A0CDB7DEB783E390E023E330E0F9012081A9
S11303B02F7DFC01208384E390E024E330E0F90105
S11303C020812062FC01208380E390E020E330E080
S11303D0F90120812860FC01208381E390E021E37E
S11303E030E0F9012081277FFC0120830000DF91A8
S11303F0CF910895CF93DF9300D01F921F92CDB772
S1130400DEB719821A821B821C82000082E390E00C
S1130410FC018081882F90E080729927892BB1F7A5
S11304201D8236C081E390E021E330E0F9012081B0
S11304302860FC01208389819A81AB81BC81880F6B
S1130440991FAA1FBB1F89839A83AB83BC8381E353
S113045090E021E330E0F9012081277FFC01208333
S113046082E390E0FC018081882F90E080729927DC
S1130470892B59F089819A81AB81BC810196A11D98
S1130480B11D89839A83AB83BC838D818F5F8D83F8
S11304908D81883138F281E390E021E330E0F90185
S11304A020812860FC01208389819A81AB81BC81F1
S11304B0A05889839A83AB83BC8381E390E021E3D2
S11304C030E0F9012081277FFC01208389819A8112
S11304D0AB81BC81BC01CD010F900F900F900F90A8
S11304E00F90DF91CF910895CF93DF93CDB7DEB70F
S11304F080E092E022DF85E092E01FDF87E192E076
S11305001CDF0000DF91CF910895CF93DF931F92FA
S11305101F92CDB7DEB71A82198208C086E292E034
S11305200CDF89819A8101969A83898389819A81D2
S11305304E97A4F300000F900F90DF91CF91089590
S1130540CF93DF93CDB7DEB72C970FB6F894DEBF09
S11305500FBECDBF9A8789877C876B8789859A85EB
S1130560FC0180819181A281B38189839A83AB83C9
S1130570BC838B859C85FC0180819181A281B381A0
S11305808D839E83AF83B88729813A814B815C81B7
S11305908D819E81AF81B885281739074A075B078B
S11305A018F48FEF9FEF12C029813A814B815C814F
S11305B08D819E81AF81B88582179307A407B50703
S11305C018F481E090E002C080E090E02C960FB631
S11305D0F894DEBF0FBECDBFDF91CF910895CF92C7
S11305E0DF92EF92FF920F931F93CF93DF93CDB7D8
S11305F0DEB764970FB6F894DEBF0FBECDBF8C8B09
S11306000DB71EB78DB79EB76C018C89882321F472
S113061080E090E0DC01F0C02C89822F90E001970B
S11306209B838A83822F90E0880F991F880F991FDC
S11306302DB73EB7281B390B0FB6F8943EBF0FBE3B
S11306402DBF8DB79EB701969D838C83198283C07D
S11306508981E82EF12CCEDEDC01CB014C815D8159
S11306609701220F331F220F331F240F351FF90167
S113067080839183A283B38380E090E0A0E0B0E420
S11306808E839F83A887B98720E030E04AEF54E443
S11306906E817F8188859985CFD5DC01CB018A87DE
S11306A09B87AC87BD8720E030E040E85FE36A8544
S11306B07B858C859D8572D488232CF481E090E021
S11306C09F878E873BC020E03FEF4FE757E46A8562
S11306D07B858C859D85ACD518163CF520E030E0F3
S11306E040E251E46E817F8188859985A5D5DC013E
S11306F0CB01BC01CD01BED4DC01CB019F878E8729
S11307000FC088EC90E0998B888B88899989019730
S1130710F1F7998B888B8E859F8501979F878E87AC
S11307208E859F85892B69F713C06A857B858C85A7
S11307309D85A0D4DC01CB019F878E878E859F8504
S11307409B8B8A8B8A899B890197F1F79B8B8A8B78
S113075089818F5F898399818C89981708F478CF70
S11307608C89682F70E08C819D8120EA32E044E01E
S113077050E00E948D0D8C898170882361F58C89ED
S11307808695882F90E001972C813D81880F991FD1
S1130790880F991F820F931FFC01208131814281B0
S11307A053818C898695882F90E06C817D81880F98
S11307B0991F880F991F860F971FFC0180819181D3
S11307C0A281B381820F931FA41FB51FB695A7956D
S11307D09795879511C08C898695882F90E02C81F8
S11307E03D81880F991F880F991F820F931FFC0169
S11307F080819181A281B3810FB6F894DEBE0FBED1
S1130800CDBEBC01CD010FB6F8941EBF0FBE0DBF07
S113081064960FB6F894DEBF0FBECDBFDF91CF91C3
S11308201F910F91FF90EF90DF90CF900895EF927A
S1130830FF920F931F93CF93DF93CDB7DEB7C856C4
S1130840D1090FB6F894DEBF0FBECDBF87E292E0A8
S113085074DD8AE392E071DD80E090E0AAEFB4E415
S113086089A79AA7ABA7BCA720E030E04AEF54E4DD
S113087069A57AA58BA59CA5DFD4DC01CB018DA746
S11308809EA7AFA7B8AB20E030E040E85FE36DA5DA
S11308907EA58FA598A982D388232CF481E090E0CB
S11308A09AAB89AB3BC020E03FEF4FE757E46DA51F
S11308B07EA58FA598A9BCD418163CF520E030E09D
S11308C040E251E469A57AA58BA59CA5B5D4DC01C9
S11308D0CB01BC01CD01CED3DC01CB019AAB89ABFA
S11308E00FC088EC90E09CAB8BAB8BA99CA90197C3
S11308F0F1F79CAB8BAB89A99AA901979AAB89AB09
S113090089A99AA9892B69F713C06DA57EA58FA51E
S113091098A9B0D3DC01CB019AAB89AB89A99AA978
S11309209EAB8DAB8DA99EA90197F1F79EAB8DABC4
S113093088EE55DEDC01CB018D839E83AF83B887BF
S113094088E592E0FADC88E692E0F7DC00001ADD44
S11309508823E9F3E0DC80E090E0AAEFB4E4898343
S11309609A83AB83BC8320E030E04AEF54E469818E
S11309707A818B819C8160D4DC01CB018FAB98AFF1
S1130980A9AFBAAF20E030E040E85FE36FA978ADEB
S113099089AD9AAD03D388232CF481E090E09CAF19
S11309A08BAF3BC020E03FEF4FE757E46FA978AD32
S11309B089AD9AAD3DD418163CF520E030E040E214
S11309C051E469817A818B819C8136D4DC01CB012D
S11309D0BC01CD014FD3DC01CB019CAF8BAF0FC069
S11309E088EC90E09EAF8DAF8DAD9EAD0197F1F791
S11309F09EAF8DAF8BAD9CAD01979CAF8BAF8BAD94
S1130A009CAD892B69F71DC06FA978AD89AD9AADEE
S1130A1031D3DC01CB019CAF8BAF2BAD3CADCE0110
S1130A20CF96FC0131832083CE01CF96FC018081D7
S1130A3091810197F1F79E01215C3F4FF901918368
S1130A40808388EECCDDDC01CB018D879E87AF8768
S1130A50B88B2D853E854F8558898D819E81AF81C8
S1130A60B88579018A01E81AF90A0A0B1B0BD80127
S1130A70C701898B9A8BAB8BBC8B80E090E0A8E498
S1130A80B3E48D8B9E8BAF8BB88F69897A898B8900
S1130A909C891ED3DC01CB019C01AD016D897E894B
S1130AA08F89988D7FD2DC01CB01898F9A8FAB8F90
S1130AB0BC8F8AE992E041DC9DDCDC01CB018D8FA7
S1130AC09E8FAF8FB8A32D8D3E8D4F8D58A18D81F4
S1130AD09E81AF81B88579018A01E81AF90A0A0B67
S1130AE01B0BD801C70189A39AA3ABA3BCA369A11B
S1130AF07AA18BA19CA1ECD2DC01CB01298D3A8D8A
S1130B004B8D5C8DBC01CD0197D3DC01CB018DA352
S1130B109EA3AFA3B8A788A58F938FA18F938EA10F
S1130B208F938DA18F938AEB92E0892F8F938AEB19
S1130B3092E08F93CE01855B9F4F292F2F938F9344
S1130B400E9475100DB71EB7085F1F4F0FB6F894BB
S1130B50DEBF0FBECDBFCE01855B9F4FEEDB80E0D5
S1130B6090E0AAEFB3E489879A87AB87BC878E01AC
S1130B700F5B1F4F20E030E04AEF54E469857A852B
S1130B808B859C8559D3DC01CB01F801808391834B
S1130B90A283B383CE018F5B9F4F20E030E040E817
S1130BA05FE3FC016081718182819381F7D18823A5
S1130BB04CF4CE018B5B9F4F21E030E0FC0131838C
S1130BC0208365C0CE018F5B9F4F20E03FEF4FE74E
S1130BD057E4FC01608171818281938129D31816C5
S1130BE00CF044C020E030E040E251E469857A85AD
S1130BF08B859C8521D3DC01CB018E010B5B1F4FC0
S1130C00BC01CD0137D2DC01CB01F8019183808393
S1130C1024C0CE01895B9F4F28EC30E0FC01318376
S1130C202083CE01895B9F4FFC01808191810197D4
S1130C30F1F79E01295B3F4FF90191838083CE0137
S1130C408B5B9F4F9E012B5B3F4FF90120813181CC
S1130C5021503109FC0131832083CE018B5B9F4FEE
S1130C60FC0180819181892BA1F62BC08E010B5B45
S1130C701F4FCE018F5B9F4FFC0160817181828188
S1130C809381F8D1DC01CB01F80191838083CE01FB
S1130C90875B9F4F9E012B5B3F4FF9012081318180
S1130CA0FC0131832083CE01875B9F4FFC0180814F
S1130CB091810197F1F79E01275B3F4FF9019183E1
S1130CC08083FACECF93DF93CDB7DEB7E5970FB627
S1130CD0F894DEBF0FBECDBF80E096E9CDDA8DE299
S1130CE090E02DE230E0F90120812F7DFC0120838A
S1130CF08DE290E02DE230E0F90120812F7BFC01B0
S1130D0020838EE290E02EE230E0F901208120621F
S1130D10FC0120838EE290E02EE230E0F901208194
S1130D202064FC0120838AE690E02AE630E0F901A1
S1130D3020812860FC0120838AE690E02AE630E0E6
S1130D40F90120812B7FFC0120838AE690E02AE6CA
S1130D5030E0F90120812062FC0120838AE690E0E2
S1130D602AE630E0F90120812F7EFC0120838DE307
S1130D7090E02DE330E0F90120812062FC01208322
S1130D808DE390E02DE330E0F90120812064FC0143
S1130D90208378948DE0E8E1F3E0DE01559601903C
S1130DA00D928A95E1F719820EC08981882F90E00F
S1130DB09E012B5E3F4F820F931FFC01808190DACE
S1130DC089818F5F89838981882F90E09E012B5EC2
S1130DD03F4F820F931FFC018081882331F784E207
S1130DE090E024E230E0F90120812066FC012083B8
S1130DF08DE290E02DE230E0F90120812860FC01D1
S1130E00208372DB88DA8A8387EC92E096DA8A811F
S1130E1067DA8DE065DA8AE063DA8A81882F90E008
S1130E208133910581F0823391051CF4C09741F020
S1130E30B0C08333910539F0C49709F4A4C0A9C0A4
S1130E4064DB52DBAAC0AADA83ED92E076DA1B8275
S1130E501C821D821E828EED92E06FDACBDADC01F9
S1130E60CB018B839C83AD83BE8380E090E0AAEFAB
S1130E70B3E48F839887A987BA8720E030E04AEFEC
S1130E8054E46F81788589859A85D6D1DC01CB01BC
S1130E908B879C87AD87BE8720E030E040E85FE326
S1130EA06B857C858D859E8579D088232CF481E0A3
S1130EB090E0988B8F873BC020E03FEF4FE757E4EB
S1130EC06B857C858D859E85B3D118163CF520E015
S1130ED030E040E251E46F81788589859A85ACD110
S1130EE0DC01CB01BC01CD01C5D0DC01CB01988B69
S1130EF08F870FC088EC90E09A8B898B89899A89B7
S1130F000197F1F79A8B898B8F8598890197988B34
S1130F108F878F859889892B69F713C06B857C85AA
S1130F208D859E85A7D0DC01CB01988B8F878F851B
S1130F3098899C8B8B8B8B899C890197F1F79C8B6F
S1130F408B8B8E818F938D818F938C818F938B81EB
S1130F508F9388EF92E0892F8F9388EF92E08F939D
S1130F60CE018296292F2F938F930E9475108DB7EF
S1130F709EB708960FB6F894DEBF0FBECDBFCE0164
S1130F808296DBD96BCF0ADA83ED92E0D6D94FDCB7
S1130F9004C085E093E0D1D9000034CFD4D008F464
S1130FA081E008950CD00AC102D140F0F9D030F0AC
S1130FB021F45F3F19F0EBC0511134C1EEC00FD1E1
S1130FC098F39923C9F35523B1F3951B550BBB270C
S1130FD0AA2762177307840738F09F5F5F4F220FB9
S1130FE0331F441FAA1FA9F333D00E2E3AF0E0E8B2
S1130FF030D091505040E695001CCAF729D0FE2FFE
S113100027D0660F771F881FBB1F2617370748078F
S1131010AB07B0E809F0BB0B802DBF01FF27935845
S11310205F4F2AF09E3F510568F0B1C0FBC05F3F9F
S1131030ECF3983EDCF3869577956795B795F7952D
S11310409F5FC9F7880F911D9695879597F9089525
S1131050E1E0660F771F881FBB1F621773078407C1
S1131060BA0720F0621B730B840BBA0BEE1F88F7D0
S1131070E0950895BCD088F09F5790F0B92F992738
S1131080B751A0F0D1F0660F771F881F991F1AF08F
S1131090BA95C9F712C0B13081F0C3D0B1E0089558
S11310A0C0C0672F782F8827B85F39F0B93FCCF3D9
S11310B0869577956795B395D9F73EF49095809585
S11310C0709561957F4F8F4F9F4F0895E89409C0A5
S11310D097FB3EF490958095709561957F4F8F4F67
S11310E09F4F9923A9F0F92F96E9BB279395F6957D
S11310F0879577956795B795F111F8CFFAF4BB0FFB
S113110011F460FF1BC06F5F7F4F8F4F9F4F16C05E
S1131110882311F096E911C0772321F09EE8872FE8
S1131120762F05C0662371F096E8862F70E060E0A4
S11311302AF09A95660F771F881FDAF7880F96951D
S1131140879597F90895990F0008550FAA0BE0E8C1
S1131150FEEF16161706E807F907C0F01216130675
S1131160E407F50798F0621B730B840B950B39F4B5
S11311700A2661F0232B242B252B21F408950A261B
S113118009F4A140A6958FEF811D811D089597F95B
S11311909F6780E870E060E008959FEF80EC089519
S11311A000240A9416161706180609060895002442
S11311B00A9412161306140605060895092E0394BC
S11311C0000C11F4882352F0BB0F40F4BF2B11F430
S11311D060FF04C06F5F7F4F8F4F9F4F089557FD8F
S11311E09058440F551F59F05F3F71F04795880F91
S11311F097FB991F61F09F3F79F087950895121628
S113120013061406551FF2CF4695F1DF08C01616D3
S113121017061806991FF1CF869571056105089484
S11312200895E894BB2766277727CB0197F908959B
S11312308ADF08F48FEF08950BD0C0CFB1DF28F018
S1131240B6DF18F0952309F0A2CFA7CF1124EACF77
S1131250C6DFA0F3959FD1F3950F50E0551F629F11
S1131260F001729FBB27F00DB11D639FAA27F00DFB
S1131270B11DAA1F649F6627B00DA11D661F829F22
S11312802227B00DA11D621F739FB00DA11D621F07
S1131290839FA00D611D221F749F3327A00D611D24
S11312A0231F849F600D211D822F762F6A2F112406
S11312B09F5750408AF0E1F088234AF0EE0FFF1F59
S11312C0BB1F661F771F881F91505040A9F79E3F90
S11312D0510570F05CCFA6CF5F3FECF3983EDCF392
S11312E0869577956795B795F795E7959F5FC1F7CD
S11312F0FE2B880F911D9695879597F908952F9247
S11313003F924F925F926F927F928F929F92AF9291
S1131310BF92CF92DF92EF92FF920F931F93CF93DE
S1131320DF93CDB7DEB760970FB6F894DEBF0FBE7C
S1131330CDBF7C011B016A01FC01178216828381E7
S113134081FF2AC39E012F5F3F4F3901F70193812B
S1131350F10193FD859193FF81911F01882309F485
S113136017C3853239F493FD859193FF81911F0151
S1131370853231F4B70190E07CD656016501E6CFA1
S113138010E0512C912CFFE1F915D8F08B3279F053
S113139038F4803279F08332A1F4F92DF0612EC053
S11313A08D3261F0803369F4292D21602DC0392DEF
S11313B03260932E892D8460982E2AC0E92DE8602E
S11313C015C097FC2DC020ED280F2A3088F496FE16
S11313D006C03AE0139F200D1124122F19C08AE091
S11313E0589E200D1124522EE92DE0629E2E10C02D
S11313F08E3231F496FCCCC2F92DF0649F2E08C0D5
S11314008C3621F4292D2068922E02C0883641F4AE
S1131410F10193FD859193FF81911F018111B3CF58
S11314209BEB980F933020F4992D9061805E07C058
S11314309BE9980F933008F059C1992D9F7E96FF30
S113144016E09F73992E853619F49064992E08C07E
S1131450863621F4392F3068932E02C011111150B1
S113146097FE07C01C3350F444244394410E27E0F4
S11314700BC0183038F027E017E005C027E09CE3E4
S1131480492E02C0212F412C560184E0A80EB11C24
S1131490F6016081718182819381042DA301FBD4C3
S11314A06C01F981FC87F0FF02C0F3FF06C091FCD8
S11314B006C092FE06C000E205C00DE203C00BE2C6
S11314C001C000E08C858C7019F0011143C280C208
S11314D097FE10C04C0CFC85F4FF04C08A81813354
S11314E009F44A94141474F528E0241578F588E076
S11314F0482E2CC096FC2AC0812F90E08C159D05A7
S11315009CF03CEFC3163FEFD30674F0892D80683E
S1131510982E0AC0E2E0F0E0EC0FFD1FE10FF11D90
S11315208081803319F411501111F4CF97FE0EC04D
S113153044244394410E812F90E0C816D9062CF41C
S11315401C1904C04424439401C010E097FE06C053
S11315501C141D0434F4C601019605C085E090E016
S113156002C081E090E001110196112331F0212F96
S113157030E02F5F3F4F820F931F252D30E08217FD
S1131580930714F4581A01C0512C892D897041F421
S1131590552031F0B70180E290E06BD55A94F8CF32
S11315A0002321F0B701802F90E063D593FC08C09D
S11315B0552031F0B70180E390E05BD55A94F8CF21
S11315C097FE4AC04601D7FE02C0812C912CC60169
S11315D088199909F301E80FF91FFE87ED87960131
S11315E024193109388B2F87012F10E011950195AB
S11315F011093FEF8316930621F4B7018EE290E0C0
S113160038D5C814D9044CF08F8598898815990564
S113161024F4ED85FE85818101C080E3F1E08F1A19
S113162091082D853E852F5F3F4F3E872D8780167D
S1131630910624F0B70190E01CD5DBCFC814D9047F
S113164041F49A81963320F4953319F43C8534FFA0
S113165081E3B70190E048C08A81813319F09C8509
S11316609F7E9C87B70190E004D5111105C094FCBE
S113167016C085E690E015C0B7018EE290E0F9D47B
S11316801E5F82E001E0080FF301E80FF11D808185
S1131690B70190E0EED4802F0113F4CFE8CF85E4B6
S11316A090E0B701E6D4D7FC06C0C114D10441F4DC
S11316B0EC85E4FF05C0D194C194D1088DE201C04A
S11316C08BE2B70190E0D5D480E32AE0C216D104BE
S11316D02CF08F5FFAE0CF1AD108F7CFB70190E072
S11316E0C8D4B701C601C096C4D449C1833631F009
S11316F0833779F0833509F052C01FC0560132E0B8
S1131700A30EB11CF6018081898301E010E063011E
S113171011C05601F2E0AF0EB11CF601C080D180B9
S113172096FE03C0612F70E002C06FEF7FEFC60129
S113173095D48C01F92DFF7713C0560122E0A20E37
S1131740B11CF601C080D18096FE03C0612F70E009
S113175002C06FEF7FEFC60176D48C01F92DF068DB
S11317609F2EF3FD18C0852D90E00817190798F4F3
S1131770B70180E290E07DD45A94F5CFF60197FC4E
S1131780859197FE81916F01B70190E072D4511059
S11317905A94015011090115110581F7F0C08436DE
S11317A011F0893659F5560197FE09C024E0A20EBE
S11317B0B11CF60160817181828193810AC0F2E0DB
S11317C0AF0EB11CF60160817181072E000C880BED
S11317D0990BF92DFF769F2E97FF09C09095809560
S11317E0709561957F4F8F4F9F4FF0689F2E2AE031
S11317F030E0A301A8D4C82EC6183EC0092D8537F1
S113180021F40F7E2AE030E01DC0097F8F3691F06D
S113181018F4883559F0BCC0803719F0883711F0B6
S1131820B7C0006104FF09C0046007C094FE08C08B
S1131830066006C028E030E005C020E130E002C0C8
S113184020E132E0560107FF09C084E0A80EB11C74
S1131850F601608171818281938108C0F2E0AF0E4C
S1131860B11CF6016081718180E090E0A3016BD42A
S1131870C82EC6180F77902E96FE0BC0092D0E7F2A
S1131880C11650F494FE0AC092FC08C0092D0E7EC5
S113189005C0DC2C092D03C0DC2C01C0D12E04FFB3
S11318A00DC0FE01EC0DF11D8081803311F4097E21
S11318B009C002FF06C0D394D39404C0802F867855
S11318C009F0D39403FD10C000FF06C01C2DD514ED
S11318D078F4150D1D190CC0D51450F4B70180E22D
S11318E090E0C7D3D394F8CFD51410F45D1801C099
S11318F0512C04FF0FC0B70180E390E0BAD302FF7C
S113190016C001FD03C088E790E002C088E590E0BE
S1131910B7010CC0802F867851F001FF02C08BE222
S113192001C080E207FD8DE2B70190E0A2D3C116A9
S113193030F4B70180E390E09CD31150F8CFCA94FF
S1131940F301EC0DF11D8081B70190E092D3C11039
S1131950F6CF15C0F4E0F51550F584E0581A93FE5F
S11319601EC0011125C02C8523FF27C004E311E00C
S1131970392D3071932EF8018491811121C05520A5
S113198009F4FCCCB70180E290E073D35A94F7CF0A
S1131990F7018681978123C08FEF9FEF20C0B701A5
S11319A080E290E066D35A945110F9CFDACF512CEB
S11319B0B701802F90E05DD3D6CF08E311E0D8CFF4
S11319C091108052B70190E054D30F5F1F4FD3CFD3
S11319D023E0251510F483E0C1CF512CC4CF6096C9
S11319E00FB6F894DEBF0FBECDBFDF91CF911F912C
S11319F00F91FF90EF90DF90CF90BF90AF909F90AA
S1131A008F907F906F905F904F903F902F900895AC
S1131A10A1E21A2EAA1BBB1BFD010DC0AA1FBB1FEE
S1131A20EE1FFF1FA217B307E407F50720F0A21B60
S1131A30B30BE40BF50B661F771F881F991F1A94CD
S1131A4069F760957095809590959B01AC01BD01F7
S1131A50CF010895052E97FB16F400940FD057FD7F
S1131A6005D0D6DF07FC02D046F408C05095409557
S1131A70309521953F4F4F4F5F4F08959095809536
S1131A80709561957F4F8F4F9F4F0895DC01FB0147
S1131A908C9190819D9381934150510914161506A0
S1131AA0BCF30895CF92DF92EF92FF920F931F93AE
S1131AB0CF93DF937C016B01D42FC52F8901F901EA
S1131AC019956D2F7C2F97FF10C0C601F801199549
S1131AD097FF02C0C60118C06D2F7C2FC701F80103
S1131AE0199597FD0FC0C7010FC0C601F8011995DC
S1131AF0181619067CF36D2F7C2FC701F801199570
S1131B0097FDF1CF8D2F9C2FDF91CF911F910F91D6
S1131B10FF90EF90DF90CF9008952F923F924F92D5
S1131B205F926F927F928F929F92AF92BF92CF9269
S1131B30DF92EF92FF920F931F93CF93DF93CDB772
S1131B40DEB72A970FB6F894DEBF0FBECDBF8C0167
S1131B507B015A874987690129853A85200F311FFE
S1131B603A83298337E0E316F10468F569807A80C3
S1131B7049855A85E49E5001E59EB00CF49EB00C54
S1131B801124A00EB11E6A147B0408F06BC173010A
S1131B900E151F0528F089859A85680E791EF3CFE6
S1131BA04701E985FA858E1A9F0AB701C401F60137
S1131BB01995181619067CF749855A85B401C70189
S1131BC065DF7401E5CFC7019695879529853A8528
S1131BD0829F5001839FB00C929FB00C1124A00EE1
S1131BE0B11EA701415051095C834B8357E0E516B0
S1131BF0F10409F448C08B819C81829F3001839F4A
S1131C00700C929F700C1124600E711E99E2E916FB
S1131C10F10490F1C70143E0969587954A95E1F761
S1131C20829F4001839F900C929F900C1124140179
S1131C30220C331CA801420D531DB801680D791DF7
S1131C409601C8012FDF2C01A501480D591D91945F
S1131C50819491089601B501C501880D991D22DF73
S1131C605C01B301680D791D9601A301C3018219BA
S1131C70930918DF3C0101C028019601A301B501B5
S1131C80C20110DF5C0149855A85B501C801FEDE39
S1131C9069807A802B813C8149855A85249FF00193
S1131CA0259FF00D349FF00D1124FE83ED835F0119
S1131CB0A00EB11E460D571D5C834B8325011301F5
S1131CC01A8219828B809C8089859A85881A990A40
S1131CD0A814B90408F44DC0B801C401F60119955B
S1131CE018161906B4F1892B69F449855A85B4018B
S1131CF0C101CCDE89859A85280E391EE1E0F0E029
S1131D00FA83E9832B813C8149855A85240F351F49
S1131D103C832B83D7CFB801C501F60119959501F2
S1131D2049855A85241B350B38872F8397FD15C0A9
S1131D30892B69F449855A85B201C501A7DE298535
S1131D403A85421A530A41E050E05A834983AF80EE
S1131D50B884A814B904F8F60CC049855A85B501AD
S1131D60C40194DEAF80B88441E050E05A834983D3
S1131D70C9CF89819A81892B09F44AC06D807E80FC
S1131D8029853A85620E731E600E711E7401E21875
S1131D90F308A101401B510BE416F5060CF4A7014E
S1131DA0141615062CF4B401641B750BC8016EDE01
S1131DB0A2014A195B095A01A301441955098985ED
S1131DC09A85481B590BA416B50608F4A5011416E8
S1131DD015062CF4B301641B750BC40157DEE985A9
S1131DE0FA85EE15FF0538F4C701BF010AD2960142
S1131DF0AF01C80192DE29853A852A153B0590F585
S1131E0083010A191B09C501B901FBD17B01A4CEC9
S1131E10E985FA85EE9E5001EF9EB00CFE9EB00C53
S1131E201124A00EB11E6A147B04E0F473010E1594
S1131E301F0528F089859A85680E791EF4CF47011D
S1131E40E985FA858E1A9F0AB701C401F60119952E
S1131E50181619067CF749855A85B401C70116DEA0
S1131E607401E5CF2A960FB6F894DEBF0FBECDBF3E
S1131E70DF91CF911F910F91FF90EF90DF90CF9062
S1131E80BF90AF909F908F907F906F905F904F9096
S1131E903F902F900895283008F027E03327DA0187
S1131EA0990F311D87FD916000966105710539F424
S1131EB032602E5F3D9330E32A95E1F708959F3F0A
S1131EC030F080387105610509F03C5F3C5F3D935B
S1131ED0913008F08068911DDF93CF931F930F9387
S1131EE0FF92EF92192F987F9695E92F96959695E4
S1131EF0E90FFF27EA56FE4F99273327EE24FF24E4
S1131F00A701E70105900894079428F4360FE71E0B
S1131F10F81E491F511D660F771F881F991F0694CD
S1131F20A1F70590079428F4E70EF81E491F561FE1
S1131F30C11D770F881F991F661F0694A1F705908E
S1131F40079428F4F80E491F561FC71FD11D880F88
S1131F50991F661F771F0694A1F70590079420F434
S1131F60490F561FC71FD81F990F661F771F881F59
S1131F700694A9F784911095177041F0D695C795EA
S1131F8057954795F794E7941A95C1F7ECE3F1E078
S1131F9068941590159135916591959105907FE21E
S1131FA07395E118F10A430B560BC90BD009C0F71E
S1131FB0E10CF11E431F561FC91FD01D7EF4703360
S1131FC011F48A95E6CFE894015030F0080F0AF432
S1131FD00027021708F4202F2395022F7A3328F0C4
S1131FE079E37D932A95E9F710C07D932A9589F6C4
S1131FF0069497956795379517951794E118F10A04
S1132000430B560BC90BD00998F023957E91739519
S11320107A3308F070E37C932013B8F77E917061F3
S11320207D9330F0839571E37D9370E32A95E1F716
S11320301124EF90FF900F911F91CF91DF91992779
S113204087FD90950895FC01059061507040011042
S1132050D8F7809590958E0F9F1F0895FC016150CD
S1132060704001900110D8F7809590958E0F9F1FB6
S113207008950F931F93CF93DF93FB01238121FDD9
S113208003C08FEF9FEF2CC022FF16C046815781FB
S1132090248135814217530744F4A081B1819D0105
S11320A02F5F3F4F318320838C93268137812F5FAD
S11320B03F4F3783268314C08B01EC01FB0100845E
S11320C0F185E02D1995892BE1F6D80116968D91AD
S11320D09C911797019617969C938E931697CE0111
S11320E0DF91CF911F910F9108950F931F93CF9379
S11320F0DF93CDB7DEB72E970FB6F894DEBF0FBED1
S1132100CDBF0E891F8986E08C831A8309838FEFE4
S11321109FE79E838D83AE01465E5F4F688D798D08
S1132120CE010196ECD8EF81F885E00FF11F108203
S11321302E960FB6F894DEBF0FBECDBFDF91CF91C0
S11321401F910F910895FA01AA27283051F12031E7
S113215081F1E8946F936E7F6E5F7F4F8F4F9F4F37
S1132160AF4FB1E03ED0B4E03CD0670F781F891F79
S11321709A1FA11D680F791F8A1F911DA11D6A0F47
S1132180711D811D911DA11D20D009F468943F91FA
S11321902AE0269F11243019305D3193DEF6CF01F9
S11321A00895462F4770405D4193B3E00FD0C9F7BF
S11321B0F6CF462F4F70405D4A3318F0495D31FD2C
S11321C04052419302D0A9F7EACFB4E0A69597957F
S11321D0879577956795BA95C9F700976105710555
S11321E008959B01AC010A2E06945795479537959F
S11321F02795BA95C9F7620F731F841F951FA01DF9
S11322000895AA1BBB1B51E107C0AA1FBB1FA61739
S1132210B70710F0A61BB70B881F991F5A95A9F78B
S111222080959095BC01CD010895F894FFCFF0
S113222E4D454E550031202E2E2E2E2E2E20485347
S113223E585F696E69740030202E2E2E2E2E2E209D
S113224E636C65617200003E3E3E204B414C494238
S113225E5241434941203C3C3C005A6C6F7A2076F3
S113226E6168752E204B616C696272756A656D20AA
S113227E6E756C752E2E2E004E756C61206E61730C
S113228E746176656E612E00506F6C6F7A205A4EB3
S113229E414D45207A6176617A696520286E6170B8
S11322AE722E20313030672920612073746C616383
S11322BE20454E5445522E2E2E004B616C6962728F
S11322CE6163696120646F6B6F6E63656E612E204E
S11322DE4D657269616D2E2E2E00566168613A202D
S11322EE252E326620670053544C4143494C2053EB
S11322FE493A00496E697420646F6E652E0052650A
S113230E6164696E67207765696768742041444328
S113231E2076616C75653A0056616861206A653A8B
S113232E20256C750053746C6163206E6965636F50
S113233E20696E65203A440048656C6C6F205541E7
S109234E52540D0A0000C8
S9030000FC
