S01000004C574D5F4D5353592E7372656379
S113000099C00000B7C00000B5C00000B3C0000034
S1130010B1C00000AFC00000ADC00000ABC0000024
S1130020A9C00000A7C00000A5C00000A3C0000034
S1130030A1C000007EC200009DC000009BC0000063
S113004099C0000097C0000095C0000093C0000054
S113005091C000008FC000008DC000008BC0000064
S113006089C0000087C0000085C0000083C0000074
S113007081C000007FC000007DC000007BC0000084
S113008079C0000077C0000075C0000073C0000094
S1130090B3C3000080C300006DC000006BC000004B
S11300A069C0000067C000002AC2000063C00000ED
S11300B061C000005FC000005DC000005BC00000C4
S11300C059C0000057C0000055C0000053C00000D4
S11300D051C000004FC000004DC000004BC00000E4
S11300E049C0000047C0000045C0000043C00000F4
S11300F041C000003FC000003DC000003BC0000004
S113010039C0000037C0000035C0000033C0000013
S113011031C000002FC000002DC000002BC0000023
S113012029C0000027C0000025C0000023C0000033
S113013021C0000011241FBECFEFD1E8DEBFCDBF28
S113014000E00CBF12E0A0E0B2E0E6EDF3E300E073
S11301500BBF02C007900D92A430B107D9F72AE172
S1130160A4E0B2E001C01D92AF30B207E1F76BD159
S11301700C94E91945CFCF93DF931F921F92CDB70B
S1130180DEB79A8389831092230200000F900F90A8
S1130190DF91CF910895CF93DF93CDB7DEB78091F0
S11301A023028823B9F58091FE02882399F1809176
S11301B0FE02882F90E0AC0161E972E084E292E0F3
S11301C00E949E1981E090E0909318028093170298
S11301D081E08093190281E080931A0282E0809387
S11301E01B0284E292E090931D0280931C02809192
S11301F0FE0280931E028BEB90E09093200280938A
S11302001F0282E192E084D41092FE0281E0809386
S1130210230201C00000DF91CF910895CF93DF93B3
S11302201F92CDB7DEB786E0898381E090E090939A
S113023018028093170281E08093190281E0809371
S11302401A0282E080931B02CE01019690931D0254
S113025080931C0281E080931E028BEB90E09093CC
S1130260200280931F0282E192E052D41092FE0297
S113027081E08093230200000F90DF91CF910895D5
S1130280CF93DF9300D01F921F92CDB7DEB79D832B
S11302908C831A8219821DC03BD28B838091FE020B
S11302A08D3609F478DF8091FE028D3668F48091F2
S11302B0FE0291E0980F9093FE02882F90E08F56F3
S11302C09D4F2B81FC01208389819A8101969A8319
S11302D0898329813A818C819D8128173907E0F22D
S11302E085E092E00E94EC1685E092E00E94D3162D
S11302F000000F900F900F900F900F90DF91CF910F
S11303000895CF93DF931F921F92CDB7DEB79A83E0
S1130310898341DF00000F900F90DF91CF91089502
S1130320CF93DF9300D0CDB7DEB79B838A838A81D6
S11303309B81FC0187819085FC0180818630F9F4E2
S11303408A819B81FC0181858130C9F48CE49DD133
S113035085E59BD18BE499D181E497D183E595D14F
S11303608AE693D185E691D184E48FD185E48DD159
S113037082E48BD189E489D18CE487D11AC01982B3
S113038010C08A819B81FC01278130858981882F57
S113039090E0820F931FFC01808177D189818F5F68
S11303A089838A819B81FC0191858981891748F31E
S11303B035DF81E00F900F900F90DF91CF9108957A
S11303C0CF93DF93CDB7DEB780E090E03CD384E0F9
S11303D090E051D38FE10E94EB1481E00E94DC1481
S11303E060E971E081E05FD384E190E0A0E0B0E0F7
S11303F080930B0290930C02A0930D02B0930E0213
S113040010920F0281E891E0909311028093100200
S11304100000DF91CF910895CF93DF93CDB7DEB77E
S113042080910402882F90E0009719F0019731F031
S113043006C0C6DF81E08093040201C00000000012
S1130440DF91CF910895CF93DF93CDB7DEB70E94AC
S1130450AD1660E076E980E090E083D08AE615D1BD
S11304600E94BB1642D2D8DFFBCFCF93DF93CDB728
S1130470DEB784E590E0FC0110820FB6F894A895ED
S113048080916000886180936000109260000FBECC
S113049081E690E020E8FC01208381E690E0FC0105
S11304A01082789404D00000DF91CF910895CF9307
S11304B0DF93CDB7DEB71092E61988EA90E020E129
S11304C037E2FC013183208381EA90E028E0FC01DB
S11304D0208381EA90E021EA30E0F9012081226062
S11304E0FC01208382E790E022E730E0F9012081DB
S11304F02260FC0120830000DF91CF9108951F92B8
S11305000F9200905F000F9211248F93CF93DF938B
S1130510CDB7DEB78091E6198F5F8093E6190000AE
S1130520DF91CF918F910F9000925F000F901F90F9
S113053018951F920F9200905F000F9211248F93D1
S1130540CF93DF93CDB7DEB781E08093FF02000045
S1130550DF91CF918F910F9000925F000F901F90C9
S11305601895CF93DF93CDB7DEB728970FB6F894DD
S1130570DEBF0FBECDBF6D837E838F8398878D8151
S11305809E81AF81B885880F991FAA1FBB1F880F52
S1130590991FAA1FBB1F880F991FAA1FBB1F880F73
S11305A0991FAA1FBB1F9C01AD0180E094E2A4EF38
S11305B0B0E0BC01CD010E942719DA01C9010197FD
S11305C0A109B10989839A83AB83BC832DEC30E004
S11305D089819A81AB81BC81892F9A2FAB2FBB274C
S11305E0F90180838CEC90E02981FC01208388EC64
S11305F090E022E0FC01208389EC90E028E9FC01F2
S113060020838AEC90E026E0FC0120838AE093E0DA
S1130610909309038093080380E991E09093050384
S113062080930403109207031092060310920103AF
S113063010920003109203031092020385EA94E0DF
S11306409093A4048093A30480E991E09093A00480
S113065080939F041092A2041092A10410929C040F
S113066010929B0410929E0410929D0481E080934A
S1130670360610923706000028960FB6F894DEBFAF
S11306800FBECDBFDF91CF910895CF93DF931F921B
S1130690CDB7DEB78983209106033091070380919B
S11306A00403909105032817390769F12091080381
S11306B0309109038091020390910303AC014F5FD1
S11306C05F4F5093030340930203820F931F2981CA
S11306D0FC012083209102033091030380910403E1
S11306E0909105032817390721F4109203031092FF
S11306F002038091060390910703019690930703E8
S11307008093060301C000000F90DF91CF910895FC
S1130710CF93DF931F921F92CDB7DEB78FE590E0A2
S1130720FC0180818983F8942091A3043091A4046E
S113073080919B0490919C04AC014F5F5F4F509358
S11307409C0440939B04820F931FFC0180818A8345
S113075020919B0430919C0480919F049091A0046B
S11307602817390721F410929C0410929B0480915D
S1130770A1049091A20401979093A2048093A104F0
S11307808FE590E02981FC0120838A810F900F90EE
S1130790DF91CF9108951F920F9200905F000F9206
S11307A0112400905B000F922F933F938F939F939C
S11307B0EF93FF93CF93DF93CDB7DEB781E08093C0
S11307C0360689EC90E029EC30E0F90120812F7D98
S11307D0FC0120830000DF91CF91FF91EF919F9165
S11307E08F913F912F910F9000925B000F90009298
S11307F05F000F901F9018951F920F9200905F005A
S11308000F92112400905B000F922F933F934F930C
S11308105F938F939F93EF93FF93CF93DF931F92F5
S11308201F92CDB7DEB788EC90E0FC01808189830C
S11308308EEC90E0FC0180818A838981882F90E08E
S11308408C719927892BE1F52091A1043091A204A0
S113085080919F049091A0042817390781F1209179
S1130860A3043091A40480919D0490919E04AC0152
S11308704F5F5F4F50939E0440939D04820F931FDC
S11308802A81FC01208320919D0430919E04809153
S11308909F049091A0042817390721F410929E0414
S11308A010929D048091A1049091A20401969093CA
S11308B0A2048093A10481E08093370601C0000064
S11308C00F900F90DF91CF91FF91EF919F918F91B6
S11308D05F914F913F912F910F9000925B000F9089
S11308E000925F000F901F901895CF93DF9300D074
S11308F000D0CDB7DEB78091060390910703892B12
S113090009F44CC080913606882309F447C020912D
S11309100803309109038091000390910103AC0115
S11309204F5F5F4F5093010340930003820F931F67
S1130930FC0180818983209100033091010380911F
S11309400403909105032817390721F41092010339
S113095010920003809106039091070301979093EE
S11309600703809306038FE590E0FC0180818A836E
S1130970F8948EEC90E02981FC01208389EC90E0CE
S113098029EC30E0F90120812062FC0120831092DF
S113099036068FE590E02A81FC0120838FE590E004
S11309A0FC0180818B83F894809137068C831092AC
S11309B037068091A1049091A2049E838D838FE5D4
S11309C090E02B81FC0120838C81882319F08D8198
S11309D09E8156DC000026960FB6F894DEBF0FBE4B
S11309E0CDBFDF91CF910895CF93DF931F92CDB701
S11309F0DEB71092EB191092EC191092E8191092CC
S1130A00E71910920E1A10920D1A19820EC08981DC
S1130A10882F90E00396880F991F8951964EFC0108
S1130A201182108289818F5F89838981803178F373
S1130A300E943B117DD762D25FD06AD300000F9031
S1130A40DF91CF910895CF93DF931F921F92CDB77B
S1130A50DEB79A83898389819A819093E819809378
S1130A60E71989819A810E941E1500000F900F904A
S1130A70DF91CF910895CF93DF931F921F92CDB74B
S1130A80DEB79A83898389819A819093EA19809346
S1130A90E91989819A810E94FA1400000F900F903D
S1130AA0DF91CF910895CF93DF9300D0CDB7DEB718
S1130AB089837B836A838981882F90E00396880FDA
S1130AC0991F8951964E2A813B81FC0131832083F1
S1130AD000000F900F900F90DF91CF910895CF9366
S1130AE0DF93CDB7DEB70E94FC100E94EA13D1D188
S1130AF00000DF91CF910895CF93DF93CDB7DEB798
S1130B0010923906109238060000DF91CF910895B3
S1130B10CF93DF931F921F92CDB7DEB79A83898359
S1130B2089819A81FC01148289819A81FC0117864A
S1130B3089819A81FC011382128280910D1A90910D
S1130B400E1A019690930E1A80930D1A809138060E
S1130B5090913906892B61F489819A81FC01118273
S1130B60108289819A8190933906809338060FC048
S1130B70209138063091390689819A81FC013183AC
S1130B80208389819A8190933906809338060000E6
S1130B900F900F90DF91CF910895CF93DF9300D002
S1130BA01F92CDB7DEB79C838B83C7D19A83898389
S1130BB089819A81892B59F48B819C8122E0FC01E3
S1130BC024838B819C8122E0FC012787B6C08B8122
S1130BD09C8129813A81FC01338322838B819C810E
S1130BE021E0FC01248389819A8189579F4F24EA5B
S1130BF036E0FC01318320838B819C81FC0181855B
S1130C00882F90E08470992721E0892B09F420E053
S1130C1089819A818A579F4FFC0120838B819C8113
S1130C20FC018185882F90E08170992721E0892B30
S1130C3009F420E089819A812170FC0133853E7F8B
S1130C40232BFC0123878B819C81FC018185882FC8
S1130C5090E08870992721E0892B09F420E08981AC
S1130C609A812170220F220FFC0133853B7F232BB5
S1130C70FC0123878091EB198F5F8093EB192091FE
S1130C80EB1989819A81FC0124872091E71930911D
S1130C90E81989819A81FC01368725878B819C819B
S1130CA0FC012581368189819A81FC01308B27875B
S1130CB08B819C81FC018085282F2F7089819A81EA
S1130CC02F70FC013189307F232BFC01218B8B8118
S1130CD09C81FC018781282F2F7089819A8122951C
S1130CE0207FFC0131893F70232BFC01218B8B81F8
S1130CF09C81FC018485482F50E08B819C81FC0100
S1130D002285338589819A818F579F4FFC01808189
S1130D109181B9010E949E1989819A81FC012181E6
S1130D208B819C81FC018485280F89819A81FC0137
S1130D30218389819A810E946F110F900F900F90E7
S1130D400F90DF91CF910895CF93DF9300D01F923E
S1130D50CDB7DEB79C838B8380913806909139069A
S1130D609A8389832BC089819A81FC0122813381F2
S1130D708B819C8128173907D1F48B819C818D57F5
S1130D809F4FFC01208189819A81FC0127878B81F7
S1130D909C818A579F4FFC01208189819A81FC01A3
S1130DA0208B89819A8122E0FC0124830BC08981F4
S1130DB09A81FC01808191819A83898389819A81B6
S1130DC0892B89F68B819C812DD100000F900F9087
S1130DD00F900F90DF91CF910895CF93DF9300D0C0
S1130DE01F92CDB7DEB79C838B8320913806309158
S1130DF039068B819C812817390761F48091380664
S1130E0090913906FC0180819181909339068093F9
S1130E10380625C080913806909139069A838983D3
S1130E2007C089819A81FC01808191819A83898399
S1130E3089819A81FC01208131818B819C812817D1
S1130E40390779F789819A81FC0180819181FC01BC
S1130E502081318189819A81FC01318320838091B1
S1130E600D1A90910E1A019790930E1A80930D1AF1
S1130E708B819C81FC01258536858B819C81F901C0
S1130E80199500000F900F900F900F90DF91CF9164
S1130E900895CF93DF931F921F92CDB7DEB7809151
S1130EA03806909139069A8389831FC089819A8173
S1130EB0FC018481882F90E08130910571F08230AB
S1130EC0910539F0892B09F009C089819A8165DE81
S1130ED010C089819A8181DF0CC0000089819A81C8
S1130EE0FC01808191819A83898389819A81892BEC
S1130EF0E9F60F900F90DF91CF910895CF93DF9390
S1130F001F92CDB7DEB7198210C08981282F30E037
S1130F1049E8429FC001439F900D1124865C994F7C
S1130F20FC01108289818F5F898389818E3168F306
S1130F3000000F90DF91CF910895CF93DF931F921C
S1130F40CDB7DEB7198264C08981282F30E049E823
S1130F50429FC001439F900D1124865C994FFC0170
S1130F608081882309F051C08981282F30E049E825
S1130F70429FC001439F900D1124865C994F49E81C
S1130F8050E060E070E00E94A7198981282F30E0CA
S1130F9049E8429FC001439F900D1124855C994FFD
S1130FA020E1FC0120838981482F50E08981282F8A
S1130FB030E069E8629FC001639F900D112402969E
S1130FC0865C994F9C01205F3F4F69E8649FC00194
S1130FD0659F900D11248554994FFC013183208322
S1130FE080910D1A90910E1A019690930E1A809387
S1130FF00D1A8981282F30E049E8429FC001439FA0
S1131000900D1124865C994F09C089818F5F898373
S113101089818E3108F498CF80E090E00F90DF91C1
S1131020CF910895CF93DF931F921F92CDB7DEB770
S11310309A83898389819A81FC01108280910D1A97
S113104090910E1A019790930E1A80930D1A000036
S11310500F900F90DF91CF910895CF93DF931F925C
S11310601F92CDB7DEB79A83898389819A81892BB0
S113107029F48AE396E09A83898316C089819A8148
S113108087579F4F9A8389830FC089819A81FC0176
S11310908081882319F089819A810DC089819A8180
S11310A087579F4F9A83898389819A81885496416F
S11310B060F380E090E00F900F90DF91CF9108955E
S11310C0CF93DF931F921F92CDB7DEB79A838983A4
S11310D089819A818D579F4FFC0110828091EB1971
S11310E08F5F8093EB192091EB1989819A81FC0120
S11310F024872091E7193091E81989819A81FC01AC
S11311003687258700000F900F90DF91CF910895C7
S1131110CF93DF931F92CDB7DEB7198239C089818F
S1131120282F30E0C901880F991F880F991F880F55
S1131130991F821B930B875B994E2FEF3FEFFC01A6
S1131140318320838981282F30E0C901880F991FBA
S1131150880F991F880F991F821B930B885B994EE8
S1131160FC0120812E7FFC0120838981282F30E01F
S1131170C901880F991F880F991F880F991F821B17
S1131180930B835B994EFC01108289818F5F898365
S11311908981843620F200000F90DF91CF91089569
S11311A0CF93DF9300D01F92CDB7DEB79B838A83A2
S11311B06C83198242C08981282F30E0C901880FCD
S11311C0991F880F991F880F991F821B930B875BA8
S11311D0994EFC01208131818A819B81281739072E
S11311E049F58981282F30E0C901880F991F880F9C
S11311F0991F880F991F821B930B885B994EFC01E2
S1131200808186958170282F30E08C81882F90E032
S11312102817390779F48981282F30E0C901880F0C
S1131220991F880F991F880F991F821B930B885B46
S1131230994E09C089818F5F89838981843608F436
S1131240BACF80E090E00F900F900F900F90DF9155
S1131250CF910895CF93DF9300D01F921F92CDB703
S1131260DEB788E496E19A8389831C821B821D82FF
S11312702EC089819A81FC01808181708823F1F4D8
S113128089819A81FC018581882329F489819A8145
S11312909C838B831FC08B819C81892B51F0898116
S11312A09A81FC0125818B819C81FC018581281711
S11312B030F489819A819C838B8301C000008D81E5
S11312C08F5F8D8389819A8107969A8389838D8123
S11312D0843678F28B819C81FC0120812D7FFC0176
S11312E020838B819C81FC0120812F702063FC0171
S11312F020838B819C8120E8FC0125838B819C8148
S11313000F900F900F900F900F90DF91CF91089551
S1131310CF93DF931F921F92CDB7DEB79A83898351
S113132089819A81FC0180818170882361F489819B
S11313309A812FEF3FEFFC013283218389819A81C7
S1131340FC01158201C000000F900F90DF91CF9136
S11313500895CF93DF9300D01F921F92CDB7DEB7CD
S11313609C838B836D838B819C816D8119DF9A8330
S1131370898389819A81892B31F089819A81FC0141
S11313808381948102C08FEF9FEF0F900F900F9095
S11313900F900F90DF91CF910895CF93DF9300D0FA
S11313A01F921F92CDB7DEB79C838B836D838B8195
S11313B09C816D81F5DE9A83898389819A81892B49
S11313C019F089819A81A4DF00000F900F900F908B
S11313D00F900F90DF91CF910895CF93DF93CDB706
S11313E0DEB727970FB6F894DEBF0FBECDBF9F833D
S11313F08E838E819F8102969C838B838B819C81BB
S1131400FC0187819085992374F48B819C81FC0174
S1131410278130858B819C81FC01838594852817E5
S1131420390709F083C08B819C81FC0183819481FD
S1131430019609F47DC08B819C81FC018385948590
S113144060E0AEDE9A83898389819A81892B09F4CD
S11314504BC08B819C81FC0185819681019679F436
S11314602091E7193091E8198B819C81FC018585D5
S113147096852817390719F481E090E002C080E0CE
S113148090E08D838D8181708D8389819A81FC01A7
S1131490238134818B819C81FC018781908528176D
S11314A0390761F08E819F818D579F4FFC01208108
S11314B089819A81FC018681821718F08D818823A5
S11314C051F18B819C81FC012781308589819A812E
S11314D0FC013483238389819A81FC0120812F704C
S11314E02063FC01208317C0B5DE9A8389838B8136
S11314F09C81FC012385348589819A81FC01328396
S113150021838B819C81FC012781308589819A818B
S1131510FC01348323838E819F818D579F4FFC016F
S1131520208189819A81FC01268303C0000001C0C7
S1131530000027960FB6F894DEBF0FBECDBFDF9133
S1131540CF910895CF93DF9300D01F92CDB7DEB72C
S11315509C838B838B819C81FC0187859089019678
S113156009F45FC08B819C81FC01838583FB882700
S113157080F9282F8B819C81FC0187859089622FBB
S11315800FDE9A83898389819A81892B09F44BC060
S113159089819A81FC0180818170882309F043C08C
S11315A08B819C818D579F4FFC0180818823D1F4CE
S11315B089819A81FC0120812F702063FC012083A2
S11315C089819A81FC01858121E0280F89819A8192
S11315D0FC01258389819A81FC0185818F3F21F556
S11315E04FD122C089819A81FC01808182958F70BC
S11315F02FE0280F2F7089819A812295207FFC018A
S113160030813F70232BFC01208389819A81FC0166
S1131610808182958F70882339F489819A8178DE5C
S113162003C0000001C000000F900F900F900F90B6
S1131630DF91CF910895CF93DF9300D01F92CDB760
S1131640DEB79C838B838B819C8102969A838983EA
S113165089819A81FC0185859685019641F4898169
S11316609A812FEF3FEFFC013683258327C08981C0
S11316709A81FC0181858470882359F089819A813B
S1131680FC012585368589819A81FC013683258371
S113169015C089819A81FC01818583FB882780F9A3
S11316A0282F89819A81FC0185859685622F51DED8
S11316B09C0189819A81FC013683258300000F9067
S11316C00F900F900F90DF91CF910895CF93DF93F8
S11316D000D01F92CDB7DEB79C838B838B819C8116
S11316E002969A83898389819A81FC01818583FB8F
S11316F0882780F9282F89819A81FC018585968520
S1131700622F27DE019691F08B819C8189579F4F30
S1131710FC01118210828B819C818A579F4F22E0A9
S1131720FC0120838B819C81DAD517C089819A8141
S1131730FC01818583FB882780F9482F89819A8160
S1131740FC012585368589819A81FC0183859485F0
S1131750B9010BD08B819C8165DC00000F900F9048
S11317600F900F90DF91CF910895CF93DF93CDB772
S1131770DEB729970FB6F894DEBF0FBECDBF9E83A8
S11317808D8378876F834987D8DB9A83898389819E
S11317909A81892B09F440C089819A8191DC8981DD
S11317A09A81FC01818126E0280F89819A81FC01BC
S11317B0218389819A8189579F4FFC01118210826C
S11317C089819A812D813E81FC01308B2787898113
S11317D09A818F579F4FFC01808191819C838B83D9
S11317E08B819C8121E0FC0120838B819C812D8154
S11317F03E81FC01328321838B819C812F8138853A
S1131800FC01348323838B819C812985FC012583FE
S113181089819A8164D501C0000029960FB6F89495
S1131820DEBF0FBECDBFDF91CF910895CF93DF937D
S113183000D01F92CDB7DEB79C838B838B819C81B4
S1131840FC01878190859A8389838B819C81FC012B
S11318508185863011F080E00CC089819A81FC0179
S1131860258189819A81FC0183819481622F95DD90
S113187081E00F900F900F900F90DF91CF9108951A
S1131880CF93DF931F92CDB7DEB7198226C089812B
S1131890282F30E08981482F50E0CA01880F991F12
S11318A0880F991F880F991F841B950B835B994E92
S11318B0FC018081869541E0480FC901880F991F7A
S11318C0880F991F880F991F821B930B835B994E76
S11318D0FC01408389818F5F898389818436B8F2D2
S11318E000000F90DF91CF910895CF93DF931F9263
S11318F01F92CDB7DEB79A83898389819A81FC01CF
S1131900418189819A818F579F4FFC018081918108
S11319109C0189819A810296B901681B790BCB01DC
S1131920742F781B872F0F900F90DF91CF9108951C
S1131930CF93DF931F92CDB7DEB7198211C089818F
S1131940282F30E0C901880F991F880F991F820F33
S1131950931F885F964EFC01108289818F5F898373
S113196089818A3060F384E690E0A0E0B0E080935F
S11319703D1990933E19A0933F19B09340191092CA
S1131980411988EA9DE0909343198093421964EECB
S11319907EE080E088D800000F90DF91CF91089519
S11319A0CF93DF9300D01F92CDB7DEB79C838B8398
S11319B08B819C81FC01808191810196FC01808155
S11319C0883809F053C08B819C81FC01808191810E
S11319D0FC018081813651F08B819C81FC018081E6
S11319E09181FC018081813409F040C08B819C810C
S11319F0FC0182818031D0F1A0DA9A8389838981C4
S1131A009A81892BA9F189819A8120E2FC012083A2
S1131A108B819C81FC01228189819A81FC01218333
S1131A208B819C81FC01238189819A818D579F4FF1
S1131A30FC0120838B819C81FC01248189819A8112
S1131A408C579F4FFC0120838B819C81FC018281F8
S1131A50482F50E08B819C81FC0120813181898158
S1131A609A810296B9010E949E1903C0000001C028
S1131A7000000F900F900F900F90DF91CF91089579
S1131A80CF93DF9300D000D0CDB7DEB79E838D8394
S1131A9054DA9A83898389819A81892B09F44EC007
S1131AA089819A810DDB89819A81FC01818123E0FE
S1131AB0280F89819A81FC01218389819A81895720
S1131AC09F4FFC01118210828D819E81FC018385D0
S1131AD081FB222720F989819A812170220FFC0140
S1131AE033853D7F232BFC0123878D819E81FC015F
S1131AF02585368589819A81FC01308B27878981E8
S1131B009A818F579F4FFC01808191819C838B83A5
S1131B108B819C81FC011082209136198B819C81E0
S1131B20FC0122838D819E81FC0124858B819C8113
S1131B30FC01218389819A81D2D301C000002696B9
S1131B400FB6F894DEBF0FBECDBFDF91CF910895DD
S1131B50CF93DF9300D01F92CDB7DEB79C838B83E6
S1131B6019821A8230C08A81282F30E0C901880F77
S1131B70991F880F991F820F931F885F964EFC014F
S1131B8080818823E9F08A81282F30E0C901880FF9
S1131B90991F880F991F820F931F885F964EFC012F
S1131BA080814FEF480FC901880F991F880F991F33
S1131BB0820F931F885F964EFC01408381E08983E6
S1131BC08A818F5F8A838A818A3068F28981882337
S1131BD021F08B819C810E94D31600000F900F90FE
S1131BE00F900F90DF91CF910895CF93DF93CDB7EE
S1131BF0DEB729970FB6F894DEBF0FBECDBF998725
S1131C0088871A8219821B82ACC08B81282F30E00E
S1131C10C901880F991F880F991F820F931F8C5F2A
S1131C20964E9D838C838C819D81FC0184818823C5
S1131C3009F48AC088859985FC01238534858C81C3
S1131C409D81FC01808191812817390709F07CC0AE
S1131C508C819D81FC01228188859985FC01828586
S1131C60F22FF81B8F2F8E838E81883008F046C0A8
S1131C708C819D81FC018381882F90E02E81222F0D
S1131C8030E002C0959587952A95E2F781709927EF
S1131C90892BE9F02091E7193091E8198885998515
S1131CA0FC01858196812817390779F488859985FF
S1131CB0FC01818583FB882780F9282F88859985F5
S1131CC0FC0185859685622F68DB81E074C08C8178
S1131CD09D81FC018381482F8E81282F30E081E093
S1131CE090E002C0880F991F2A95E2F7842B282FD1
S1131CF08C819D81FC01238380E05DC08E81819570
S1131D008F8388859985FC0122858C819D81FC01C6
S1131D1022838C819D81FC018381882F90E02F8117
S1131D20222F30E002C0880F991F2A95E2F78160C4
S1131D30282F8C819D81FC0123838C819D812FE13F
S1131D40FC01248380E037C08C819D81FC01848167
S1131D50882321F48C819D819A8389838B818F5F71
S1131D608B838B818A3008F450CF89819A81892BA7
S1131D7011F481E020C088859985FC012385348590
S1131D8089819A81FC013183208388859985FC01AE
S1131D90228589819A81FC01228389819A8121E0AB
S1131DA0FC01238389819A812FE1FC01248387E349
S1131DB099E1F9D780E029960FB6F894DEBF0FBEFB
S1131DC0CDBFDF91CF910895CF93DF931F921F92E0
S1131DD0CDB7DEB79A83898389819A81FC01818595
S1131DE0882311F480E017C089819A81FC018781DE
S1131DF09085FC018081882F90E0009719F001976D
S1131E0029F008C089819A8198D305C089819A8173
S1131E100DDD01C080E00F900F90DF91CF91089508
S1131E20CF93DF9300D01F92CDB7DEB79C838B8313
S1131E308B819C8102969A8389838B819C8124E285
S1131E40FC01208389819A81FC0181858270882329
S1131E5009F096C089819A81FC0181858870882364
S1131E6009F090C089819A81FC0183819481019653
S1131E70D1F42091E7193091E81989819A81FC0104
S1131E80858596852817390741F089819A81FC0157
S1131E9085859685019609F077C08B819C8122E225
S1131EA0FC01208371C089819A81FC018585968516
S1131EB0019641F489819A81FC018185817088238E
S1131EC009F064C02091E7193091E81989819A8159
S1131ED0FC01838594852817390709F459C08B813F
S1131EE09C817BDA89819A8180DE882309F052C043
S1131EF089819A81FC01858196810196B1F42091B2
S1131F00E7193091E81989819A81FC0185859685C4
S1131F102817390751F089819A81FC0181858470E1
S1131F20882319F48B819C818CD22091E7193091FC
S1131F30E81989819A81FC018585968528173907D6
S1131F4039F089819A81FC0185859685019631F461
S1131F508B819C8122E2FC0120831DC02091E71922
S1131F603091E81989819A81FC018581968128172D
S1131F70390789F48B819C8123E2FC0120830BC007
S1131F80000009C0000007C0000005C0000003C035
S1131F90000001C000000F900F900F900F90DF9190
S1131FA0CF910895CF93DF93CDB7DEB760970FB687
S1131FB0F894DEBF0FBECDBF988B8F878F8598892D
S1131FC002969A83898389819A81FC018785829507
S1131FD08F70882F90E00396880F991F8951964E31
S1131FE0FC0180819181892B11F480E0AAC0898150
S1131FF09A81FC01838594859C838B8389819A8152
S1132000FC01858596859E838D8389819A81FC0157
S113201087858F708F8389819A81FC01878582955A
S11320208F7088878F8598898F579F4FFC01808197
S113203091819B878A878F85988957DC8C878F85C8
S113204098898D579F4FFC0180818D878F85988952
S11320508C579F4FFC0180818E8789819A81FC0176
S11320608185982F917081E0992309F480E0898714
S11320708985282F89819A81FC0181858270822B30
S113208089878985282F89819A81FC0181858470BB
S1132090882311F080E201C080E0822B8987898542
S11320A0282F89819A81FC0181858870882311F009
S11320B080E401C080E0822B89878985282F89816B
S11320C09A81FC0185859685019611F484E001C00E
S11320D080E0822B89878985482F89819A81FC0138
S11320E02385348589819A81FC018781908528170D
S11320F0390711F488E001C080E0842B8987898541
S1132100282F89819A81FC0183819481019611F49D
S113211080E101C080E0822B898789819A81FC015A
S1132120878582958F70882F90E00396880F991F7A
S11321308951964EFC0120813181CE010396F9012B
S1132140199560960FB6F894DEBF0FBECDBFDF9130
S1132150CF910895CF93DF9300D0CDB7DEB79B83A3
S11321608A83109236198A819B811CDF89838A8134
S11321709B81FC0183858170882309F419828A81FB
S11321809B81FC01878190850196A9F42091E71930
S11321903091E8198A819B81FC01878590892817F1
S11321A0390749F48A819B81FC01838588708823DF
S11321B011F481E089838A819B81FC018581968168
S11321C0019609F419828091E7199091E819019612
S11321D009F419828981882319F08A819B8150DC52
S11321E08A819B8124E2FC01208300000F900F90E0
S11321F00F90DF91CF910895CF93DF931F921F9299
S1132200CDB7DEB71A82198226C089819A81FC0172
S11322108081882F90E08232910581F0833291058C
S11322201CF4809739F017C08332910559F08497D4
S113223069F011C089819A81F3DD0DC089819A8189
S113224089DF09C089819A8141DA05C089819A812F
S11322500E941208000089819A810E942D089A83A5
S1132260898389819A81892B81F600000F900F90D0
S1132270DF91CF910895CF93DF93CDB7DEB710925E
S113228045191092441982E390E0A0E0B0E08093F5
S11322904C1990934D19A0934E19B0934F19109265
S11322A050198BEE92E190935219809351198AE060
S11322B090E0A0E0B0E08093591990935A19A0934C
S11322C05B19B0935C1910925D1982E593E19093C8
S11322D05F1980935E190000DF91CF910895CF9329
S11322E0DF9300D01F92CDB7DEB79C838B838B81A5
S11322F09C8102969A8389838B819C818A579F4F04
S1132300FC018081882F90E082709927892B31F01D
S11323108B819C8122E1FC01208305C08B819C81FF
S113232022E1FC0120838B819C818D579F4FFC010E
S113233010828B819C818A579F4FFC018081882F5A
S113234090E081709927892B41F089819A812FEF40
S11323503FEFFC013483238309C02091E9193091B4
S1132360EA1989819A81FC01348323838B819C81BE
S11323708A579F4FFC018081882F90E084709927B1
S1132380892B81F48B819C818A579F4FFC0180812A
S1132390882F90E081709927892B21F48B819C816F
S11323A04AD90AC089819A81FC01258536858981AB
S11323B09A81FC01368325832091E7193091E8192D
S11323C089819A81FC01308727838091EC198F5F82
S11323D08093EC192091EC1989819A81FC01228364
S11323E089819A81FC01858196810196A1F4898174
S11323F09A8121E438E8FC013183208391D78770E6
S1132400992701969C018B819C818C579F4FFC01DD
S1132410318320830EC089819A8121E638E8FC014A
S1132420318320838B819C818C579F4FFC011182C7
S1132430108200000F900F900F900F90DF91CF91BA
S11324400895CF93DF9300D01F92CDB7DEB79C835E
S11324508B830E949D079A83898389819A81892B22
S113246009F463C089819A8122E1FC0120838B8174
S11324709C81FC01218189819A81FC0121838981CC
S11324809A818D579F4FFC0110824AD787709927F4
S113249001969C0189819A818C579F4FFC0131835D
S11324A0208389819A8189579F4FFC011182108270
S11324B08B819C81FC018181482F50E08B819C8120
S11324C09C012E5F3F4F89819A810296B90136D7CC
S11324D089819A8121E438E8FC013383228389814C
S11324E09A812FEF3FEFFC01308727838B819C81FA
S11324F0FC012581368189819A81FC0136832583FB
S11325002091E7193091E81989819A81FC01328779
S113251021878091EC198F5F8093EC192091EC193D
S113252089819A81FC01248301C000000F900F90DF
S11325300F900F90DF91CF910895CF93DF9300D048
S113254000D0CDB7DEB79E838D838D819E81FC0143
S1132550878190859C838B831A8219828D819E81C9
S1132560FC018185833019F180E02CC089819A8136
S1132570FC0180818631D9F489819A81FC0124850A
S11325808B819C81FC018181281789F489819A813E
S113259027E1FC0120838B819C81FC0122818981BC
S11325A09A818A579F4FFC01208381E00BC0898167
S11325B09A810E942D089A83898389819A81892B23
S11325C0A9F680E026960FB6F894DEBF0FBECDBF05
S11325D0DF91CF910895CF93DF9300D01F921F9284
S11325E0CDB7DEB79D838C831A8219821B8226C0E5
S11325F089819A81FC018081863101F581E08B8398
S113260089819A818C579F4FFC01808191819C0123
S11326102150310989819A818C579F4FFC01318364
S1132620208389819A818C579F4FFC0180819181FD
S1132630892B21F489819A8160E119D089819A8159
S11326400E942D089A83898389819A81892B81F636
S11326508B81882319F08C819D81A5D300000F9074
S11326600F900F900F900F90DF91CF910895CF931B
S1132670DF9300D0CDB7DEB79A8389836B838981DA
S11326809A8127E1FC01208389819A818D579F4F8C
S11326902B81FC01208300000F900F900F90DF919D
S11326A0CF910895CF93DF9300D01F921F92CDB79F
S11326B0DEB79D838C831A8219821B8227C089818D
S11326C09A81FC018081813109F581E08B838981C4
S11326D09A818C579F4FFC01808191819C012150EC
S11326E0310989819A818C579F4FFC013183208362
S11326F089819A818C579F4FFC0180819181892B1C
S113270029F489819A8123E1FC01208389819A81BA
S11327100E942D089A83898389819A81892B79F66D
S11327208B81882319F08C819D813DD300000F900B
S11327300F900F900F900F90DF91CF910895CF934A
S1132740DF931F92CDB7DEB789838981882F90E00C
S11327508130910539F08230910531F0892B31F4C3
S113276080E005C080E203C081E201C081E00F90F7
S1132770DF91CF9108950F931F93CF93DF931F920F
S1132780CDB7DEB789830091441910914519898129
S1132790D6DF282FC8018D579F4FFC0120838091DD
S11327A044199091451925E1FC01208310924519A3
S11327B01092441980910D1A90910E1A01979093DA
S11327C00E1A80930D1A00000F90DF91CF911F9184
S11327D00F910895CF93DF931F921F92CDB7DEB769
S11327E01A821982B4C089819A81FC018081882F60
S11327F090E08431910509F4AAC08531910534F43F
S11328008231910579F0439729F1A0C08631910571
S113281009F49DC0863191050CF441C0479709F431
S113282077C094C089819A818C579F4FFC01808125
S11328309181892B49F089819A8121E1FC012083CE
S113284083E599E1B0D283C089819A8123E1FC01B7
S113285020837DC08091441990914519892B09F0FA
S113286076C089819A81909345198093441989810E
S11328709A8124E1FC01208389819A81FC012181D0
S113288089819A810296622F0CD180910D1A9091C0
S11328900E1A019690930E1A80930D1A58C08981CE
S11328A09A818D579F4FFC018081882359F5898136
S11328B09A81FC01258536858091E7199091E81964
S11328C028173907C9F489819A81FC0183858170AD
S11328D0882391F089819A8126E1FC0120838981F2
S11328E09A818C579F4F29E230E0FC013183208389
S11328F086E499E158D20BC089819A8127E1FC01D1
S1132900208325C089819A8127E1FC0120831FC08F
S113291089819A810E94A20A89819A8189579F4F4D
S1132920FC0180819181892B29F489819A810E94FB
S113293012080DC089819A8189579F4FFC0120811B
S1132940318189819A81F901199501C00000898139
S11329509A810E942D089A83898389819A81892B7F
S113296009F041CF00000F900F90DF91CF910895AF
S1132970CF93DF93CDB7DEB789E391E0FC012081EB
S11329802160FC0120831092E1191092E31981E087
S11329908093601988E005D186E591E02BEEFC0177
S11329A020838CE491E0FC0120812068FC012083D9
S11329B00000DF91CF910895CF93DF931F92CDB79D
S11329C0DEB7898389818093E119D6D000000F9006
S11329D0DF91CF910895CF93DF931F92CDB7DEB7E8
S11329E0898389818093E2199CD000000F90DF9144
S11329F0CF910895CF93DF9300D01F92CDB7DEB768
S1132A009C838B83CE0103969A83898382E691E02B
S1132A1029813A81F9012081FC01208383E691E038
S1132A2029813A81F9012181FC01208300000F9062
S1132A300F900F900F90DF91CF910895CF93DF9374
S1132A4000D01F92CDB7DEB79C838B83CE01039653
S1132A509A83898380E691E029813A81F901208172
S1132A60FC01208381E691E029813A81F9012181E9
S1132A70FC0120838DE691E029813A81F9014081AE
S1132A8029813A812F5F3F4FF9012081240FFC01F6
S1132A90208300000F900F900F900F90DF91CF9143
S1132AA00895CF93DF9300D01F92CDB7DEB79B83F9
S1132AB08A836C8389E175D08FE491E02FEFFC0168
S1132AC0208380E891E02C812E5FFC012083198211
S1132AD014C08981882F90E08F579E4FAC01898163
S1132AE0882F90E02A813B81820F931FFC01808113
S1132AF0FA01808389818F5F898399818C819817FA
S1132B0040F383E08093601982E491E022E0FC01C9
S1132B10208300000F900F900F900F90DF91CF91C2
S1132B200895CF93DF93CDB7DEB784E591E020918C
S1132B30E3192F702F70FC013081307F232BFC01AF
S1132B4020838091E319882339F083E591E0209173
S1132B50E219FC0120830CC088E491E02091E21981
S1132B602F712F71FC013081307E232BFC012083D7
S1132B700000DF91CF910895CF93DF93CDB7DEB7F7
S1132B8088E00FD08FE491E02FEFFC012083809147
S1132B90E119882311F086E104D00000DF91CF9180
S1132BA00895CF93DF931F92CDB7DEB7898382E474
S1132BB091E023E0FC012083000081E491E0FC012A
S1132BC080818F718830C9F782E491E02981FC010A
S1132BD02083000081E491E0FC0180818F71982FB3
S1132BE089819817B9F700000F90DF91CF9108956C
S1132BF0CF93DF93CDB7DEB728970FB6F894DEBF37
S1132C000FBECDBF80916019823009F49CC08FE45F
S1132C1091E0FC01808183FB882780F9882309F4F3
S1132C2059C08BE791E0FC0180818B83198211C02C
S1132C308981882F90E02981222F30E020583E4F4F
S1132C40F90120818F59964EFC01208389818F5F81
S1132C5089838981282F30E08B81882F90E0019629
S1132C60281739072CF381E699E19D838C838B81A6
S1132C7082508E838B81882F90E08F59964EFC0171
S1132C8080818F8387E491E0FC0180818A55888765
S1132C90CE0104960E94D00C000081E491E0FC0176
S1132CA080818F718631C9F78FE491E0FC01208126
S1132CB02860FC0120838CE491E0FC0120812F77C3
S1132CC0FC0120838CE491E0FC0120812068FC015C
S1132CD020833AC08FE491E0FC01808186FB882741
S1132CE080F9882389F181E491E0FC0180818F716E
S1132CF0893109F582E491E0FC0180818295869511
S1132D0087708A838A81882311F41A820EC08A818B
S1132D10833019F481E08A8308C08A81853019F4EC
S1132D2082E08A8302C083E08A8326DF81E0809385
S1132D3060198A8120DD8FE491E0FC012081206408
S1132D40FC01208301C0000028960FB6F894DEBF72
S1132D500FBECDBFDF91CF910895CF93DF93CDB751
S1132D60DEB70E94350213D003DE0E94F404000093
S1132D70DF91CF910895CF93DF93CDB7DEB738DFDE
S1132D800E946F05C8D00000DF91CF910895CF93C2
S1132D90DF93CDB7DEB71092E5191092E419000065
S1132DA0DF91CF910895CF93DF931F921F92CDB7F8
S1132DB0DEB79A83898389819A8182D0982F81E0B2
S1132DC08927882319F089819A816CD100000F909A
S1132DD00F90DF91CF910895CF93DF9300D000D06F
S1132DE0CDB7DEB79E838D831A8219828091E41950
S1132DF09091E5199C838B8352C02B813C818D81FA
S1132E009E812817390709F03FC089819A81892B4F
S1132E1059F08B819C81FC012081318189819A81C7
S1132E20FC013183208309C08B819C81FC0180815A
S1132E3091819093E5198093E4198B819C81FC0125
S1132E4080819181892B89F18B819C81FC01608136
S1132E5071818B819C81FC0180819181FC012281A3
S1132E603381448155818D819E81FC0182819381CE
S1132E70A481B581820F931FA41FB51FFB01828318
S1132E809383A483B58311C08B819C819A838983A6
S1132E908B819C81FC01808191819C838B838B81BC
S1132EA09C81892B09F0A9CF01C00000000026965F
S1132EB00FB6F894DEBF0FBECDBFDF91CF9108955A
S1132EC0CF93DF9300D01F92CDB7DEB79C838B8363
S1132ED08091E4199091E5199A83898310C029811E
S1132EE03A818B819C812817390711F481E00CC049
S1132EF089819A81FC01808191819A838983898166
S1132F009A81892B61F780E00F900F900F900F90BA
S1132F10DF91CF910895EF92FF920F931F93CF9378
S1132F20DF93CDB7DEB728970FB6F894DEBF0FBE98
S1132F30CDBF8091E619882309F4A6C08FE590E0FF
S1132F40FC0180818D83F8948091E6198E83109220
S1132F50E6198FE590E02D81FC0120838E81882F76
S1132F6090E0A0E0B0E0880F991FAA1FBB1F9C014E
S1132F70AD01220F331F441F551F220F331F441F5F
S1132F80551F820F931FA41FB51F89839A83AB8398
S1132F90BC833CC08091E4199091E51998878F8394
S1132FA08091E4199091E519FC0182819381A481B7
S1132FB0B58129813A814B815C8179018A01E81AC2
S1132FC0F90A0A0B1B0BD801C70189839A83AB83C7
S1132FD0BC838091E4199091E519FC018081918171
S1132FE09093E5198093E4198F819885FC0182857B
S1132FF0813019F48F81988555D08F819885FC0193
S1133000238534858F819885F90119958091E41978
S11330109091E519892B99F08091E4199091E51923
S1133020FC01228133814481558189819A81AB815C
S1133030BC8182179307A407B50708F0ABCF809132
S1133040E4199091E519892B01F16091E4197091CB
S1133050E5198091E4199091E519FC0122813381ED
S11330604481558189819A81AB81BC8179018A012E
S1133070E81AF90A0A0B1B0BD801C701FB0182836A
S11330809383A483B58301C0000028960FB6F894F7
S1133090DEBF0FBECDBFDF91CF911F910F91FF9087
S11330A0EF900895EF92FF920F931F93CF93DF93C6
S11330B0CDB7DEB72A970FB6F894DEBF0FBECDBFEB
S11330C09A8789878091E4199091E519892B09F4ED
S11330D097C01A82198289859A85FC018681978115
S11330E0A085B1858B839C83AD83BE838091E419D5
S11330F09091E51998878F834DC08F819885FC0145
S113310022813381448155818B819C81AD81BE8133
S113311082179307A407B507D8F48F819885FC011B
S113312022813381448155818B819C81AD81BE8113
S113313079018A01E81AF90A0A0B1B0BD801C701A5
S11331402F813885F90182839383A483B58327C0B3
S11331508F819885FC0182819381A481B5812B8123
S11331603C814D815E8179018A01E81AF90A0A0BD2
S11331701B0BD801C7018B839C83AD83BE838F81D6
S113318098859A8389838F819885FC0180819181B8
S113319098878F838F819885892B09F0AECF2985F5
S11331A03A858B819C81AD81BE81F90182839383B1
S11331B0A483B58389819A81892B91F089819A812D
S11331C0FC012081318189859A85FC01318320832A
S11331D089819A8129853A85FC013183208329C01C
S11331E02091E4193091E51989859A85FC01318390
S11331F0208389859A859093E5198093E41919C0F1
S113320089859A85FC011182108289859A85FC0141
S113321086819781A085B18529853A85F9018283C4
S11332209383A483B58389859A859093E5198093C4
S1133230E41900002A960FB6F894DEBF0FBECDBF86
S1133240DF91CF911F910F91FF90EF900895A1E22C
S11332501A2EAA1BBB1BFD010DC0AA1FBB1FEE1F0C
S1133260FF1FA217B307E407F50720F0A21BB30B57
S1133270E40BF50B661F771F881F991F1A9469F7D3
S113328060957095809590959B01AC01BD01CF012F
S113329008958F929F92AF92BF92CF92DF92EF9256
S11332A0FF92CF93DF93EC01688179818A819B81BE
S11332B0611571058105910521F464E279ED8BE5D1
S11332C097E02DE133EF41E050E048D049015A0145
S11332D09B01AC01A7EAB1E45DD06B017C01ACEECB
S11332E0B4EFA501940162D0DC01CB018C0D9D1DCE
S11332F0AE1DBF1DB7FF03C00197A109B048888365
S11333009983AA83BB839F77DF91CF91FF90EF903E
S1133310DF90CF90BF90AF909F908F900895B9CFDA
S113332080E092E0B6CFA0E0B0E0809300029093FA
S11333300102A0930202B09303020895FB01DC0191
S113334002C001900D9241505040D8F70895DC011D
S113335001C06D9341505040E0F70895052E97FB4E
S113336016F400940FD057FD05D071DF07FC02D08E
S113337046F408C050954095309521953F4F4F4FE6
S11333805F4F089590958095709561957F4F8F4F0D
S11333909F4F08950FD0A59F900DB49F900DA49FAB
S11333A0800D911D11240895B7FFF4CFF3DF821B24
S11333B0930B0895A29FB001B39FC001A39F700D0A
S11333C0811D1124911DB29F700D811D1124911D29
S10933D00895F894FFCFFC
S10733D601000000EE
S9030000FC
